:020000040000fa
:080000000002040000000000f2
:020000040000fa
:04000800fa020000f8
:020000040000fa
:04000c003c030000b1
:020000040000fa
:040010007c0300006d
:020000040000fa
:040014001a030000cb
:020000040000fa
:040018005c03000085
:020000040000fa
:04001c00c803000015
:020000040000fa
:040020009c0300003d
:020000040000fa
:04002400c80300000d
:020000040000fa
:04002800c803000009
:020000040000fa
:04002c00c803000005
:020000040000fa
:04003000c803000001
:020000040000fa
:04003400c8030000fd
:020000040000fa
:04003800c8030000f9
:020000040000fa
:04003c00c8030000f5
:020000040000fa
:04004000c8030000f1
:020000040000fa
:04004400c8030000ed
:020000040000fa
:04004800c8030000e9
:020000040000fa
:04004c00c8030000e5
:020000040000fa
:04005000c8030000e1
:020000040000fa
:04005400c8030000dd
:020000040000fa
:04005800c8030000d9
:020000040000fa
:04005c00c8030000d5
:020000040000fa
:04006000c8030000d1
:020000040000fa
:04006400c8030000cd
:020000040000fa
:04006800c8030000c9
:020000040000fa
:04006c00c8030000c5
:020000040000fa
:04007000c8030000c1
:020000040000fa
:04007400c8030000bd
:020000040000fa
:04007800c8030000b9
:020000040000fa
:04007c00c8030000b5
:020000040000fa
:04008000c8030000b1
:020000040000fa
:04008400c8030000ad
:020000040000fa
:04008800c8030000a9
:020000040000fa
:04008c00c8030000a5
:020000040000fa
:04009000c8030000a1
:020000040000fa
:04009400c80300009d
:020000040000fa
:04009800c803000099
:020000040000fa
:04009c00c803000095
:020000040000fa
:0400a000c803000091
:020000040000fa
:0400a400c80300008d
:020000040000fa
:0400a800c803000089
:020000040000fa
:0400ac00c803000085
:020000040000fa
:0400b000c803000081
:020000040000fa
:0400b400c80300007d
:020000040000fa
:0400b800c803000079
:020000040000fa
:0400bc00c803000075
:020000040000fa
:0400c000c803000071
:020000040000fa
:0400c400c80300006d
:020000040000fa
:0400c800c803000069
:020000040000fa
:0400cc00c803000065
:020000040000fa
:0400d000c803000061
:020000040000fa
:0400d400c80300005d
:020000040000fa
:0400d800c803000059
:020000040000fa
:0400dc00c803000055
:020000040000fa
:0400e000c803000051
:020000040000fa
:0400e400c80300004d
:020000040000fa
:0400e800c803000049
:020000040000fa
:0400ec00c803000045
:020000040000fa
:0400f000c803000041
:020000040000fa
:0400f400c80300003d
:020000040000fa
:0400f800c803000039
:020000040000fa
:0400fc00c803000035
:020000040000fa
:04010000c803000030
:020000040000fa
:04010400c80300002c
:020000040000fa
:04010800c803000028
:020000040000fa
:04010c00c803000024
:020000040000fa
:04011000c803000020
:020000040000fa
:04011400c80300001c
:020000040000fa
:04011800c803000018
:020000040000fa
:04011c00c803000014
:020000040000fa
:04012000c803000010
:020000040000fa
:04012400c80300000c
:020000040000fa
:04012800c803000008
:020000040000fa
:04012c00c803000004
:020000040000fa
:04013000c803000000
:020000040000fa
:04013400c8030000fc
:020000040000fa
:04013800c8030000f8
:020000040000fa
:04013c00c8030000f4
:020000040000fa
:04014000c8030000f0
:020000040000fa
:04014400c8030000ec
:020000040000fa
:04014800c8030000e8
:020000040000fa
:04014c00c8030000e4
:020000040000fa
:04015000c8030000e0
:020000040000fa
:04015400c8030000dc
:020000040000fa
:04015800c8030000d8
:020000040000fa
:04015c00c8030000d4
:020000040000fa
:04016000c8030000d0
:020000040000fa
:04016400c8030000cc
:020000040000fa
:04016800c8030000c8
:020000040000fa
:04016c00c8030000c4
:020000040000fa
:04017000c8030000c0
:020000040000fa
:04017400c8030000bc
:020000040000fa
:04017800c8030000b8
:020000040000fa
:04017c00c8030000b4
:020000040000fa
:04018000c8030000b0
:020000040000fa
:04018400c8030000ac
:020000040000fa
:04018800c8030000a8
:020000040000fa
:04018c00c8030000a4
:020000040000fa
:04019000c8030000a0
:020000040000fa
:04019400c80300009c
:020000040000fa
:04019800c803000098
:020000040000fa
:04019c00c803000094
:020000040000fa
:0401a000c803000090
:020000040000fa
:0401a400c80300008c
:020000040000fa
:0401a800c803000088
:020000040000fa
:0401ac00c803000084
:020000040000fa
:0401b000c803000080
:020000040000fa
:0401b400c80300007c
:020000040000fa
:0401b800c803000078
:020000040000fa
:0401bc00c803000074
:020000040000fa
:0401c000c803000070
:020000040000fa
:0401c400c80300006c
:020000040000fa
:0401c800c803000068
:020000040000fa
:0401cc00c803000064
:020000040000fa
:0401d000c803000060
:020000040000fa
:0401d400c80300005c
:020000040000fa
:0401d800c803000058
:020000040000fa
:0401dc00c803000054
:020000040000fa
:0401e000c803000050
:020000040000fa
:0401e400c80300004c
:020000040000fa
:0401e800c803000048
:020000040000fa
:0401ec00c803000044
:020000040000fa
:0401f000c803000040
:020000040000fa
:0401f400c80300003c
:020000040000fa
:0401f800c803000038
:020000040000fa
:0401fc00c803000034
:020000040000fa
:04020000c80300002f
:020000040000fa
:04020400c80300002b
:020000040000fa
:04020800c803000027
:020000040000fa
:04020c00c803000023
:020000040000fa
:04021000c80300001f
:020000040000fa
:04021400c80300001b
:020000040000fa
:04021800c803000017
:020000040000fa
:04021c00c803000013
:020000040000fa
:04022000c80300000f
:020000040000fa
:04022400c80300000b
:020000040000fa
:04022800c803000007
:020000040000fa
:04022c00c803000003
:020000040000fa
:04023000c8030000ff
:020000040000fa
:04023400c8030000fb
:020000040000fa
:04023800c8030000f7
:020000040000fa
:04023c00c8030000f3
:020000040000fa
:04024000c8030000ef
:020000040000fa
:04024400c8030000eb
:020000040000fa
:04024800c8030000e7
:020000040000fa
:04024c00c8030000e3
:020000040000fa
:04025000c8030000df
:020000040000fa
:04025400c8030000db
:020000040000fa
:04025800c8030000d7
:020000040000fa
:04025c00c8030000d3
:020000040000fa
:04026000c8030000cf
:020000040000fa
:04026400c8030000cb
:020000040000fa
:04026800c8030000c7
:020000040000fa
:04026c00c8030000c3
:020000040000fa
:04027000c8030000bf
:020000040000fa
:04027400c8030000bb
:020000040000fa
:04027800c8030000b7
:020000040000fa
:04027c00c8030000b3
:020000040000fa
:04028000c8030000af
:020000040000fa
:04028400c8030000ab
:020000040000fa
:04028800c8030000a7
:020000040000fa
:04028c00c8030000a3
:020000040000fa
:04029000c80300009f
:020000040000fa
:04029400c80300009b
:020000040000fa
:04029800c803000097
:020000040000fa
:04029c00c803000093
:020000040000fa
:0402a000c80300008f
:020000040000fa
:0402a400c80300008b
:020000040000fa
:0402a800c803000087
:020000040000fa
:0402ac00c803000083
:020000040000fa
:0402b000c80300007f
:020000040000fa
:0402b400c80300007b
:020000040000fa
:0402b800c803000077
:020000040000fa
:0402bc00c803000073
:020000040000fa
:0402c000c80300006f
:020000040000fa
:0402c400c80300006b
:020000040000fa
:0402c800c803000067
:020000040000fa
:0402cc00c803000063
:020000040000fa
:0402d000c80300005f
:020000040000fa
:0402d400c80300005b
:020000040000fa
:0402d800c803000057
:020000040000fa
:0402dc00c803000053
:020000040000fa
:0402e000c80300004f
:020000040000fa
:0402e400c80300004b
:020000040000fa
:0402e800c803000047
:020000040000fa
:0402ec00c803000043
:020000040000fa
:0402f000c80300003f
:020000040000fa
:0402f400c80300003b
:020000040000fa
:0402f800c803000037
:020000040000fa
:0402fc00c803000033
:020000040000fa
:04030000c80300002e
:020000040000fa
:04030400c80300002a
:020000040000fa
:04030800c803000026
:020000040000fa
:04030c00c803000022
:020000040000fa
:04031000c80300001e
:020000040000fa
:04031400c80300001a
:020000040000fa
:04031800c803000016
:020000040000fa
:04031c00c803000012
:020000040000fa
:04032000c80300000e
:020000040000fa
:04032400c80300000a
:020000040000fa
:10040000af0221000eff22000e0188000000000054
:10041000000020000000e000020032000001200087
:100420002002880014000700db0007000000e00045
:1004300003003a00c06d20000100200002003700d8
:100440000000200001002000810f70000100320038
:100450000f000700000020000000e0000200320052
:1004600000000200000000009806020000000000ea
:100470000040da000000fe00a00020000000e000c4
:1004800002003200002020009001880000000600d9
:10049000a1028800800478000000eb001f003700f4
:1004a000e284440054a0b4009905ba00e2844400f8
:1004b00054a0b4009906ba00e284440054a0b400e9
:1004c0000006eb00476fde00fd07b200ae018800ba
:1004d000636ce10003003a000ad801000000eb0061
:1004e0000e003700606ce10008003a00004deb00a0
:1004f0000a05e800020039003420ec000af0a000f0
:100500008b05e900f9ff3e00040037006168e10057
:10051000010032000086eb000b00070019c7ba008b
:100520001905ba000e04e00003003a000a00e000da
:10053000dbff3a0000000600fe07b200ae028800b2
:100540008a047800f5ff37000cd0a300e20f4d00bd
:100550001c003b0089027800354dba000a05e8000e
:10056000020039003420ec000af0a0008b05e900fd
:100570000f003200254dba000a05e80002003900dc
:100580003420ec000af0a0008b05e90008003200de
:100590000c00e0000600320015cdba000a05e800a4
:1005a000020039003420ec000af0a0008b05e900bd
:1005b0008984e80054a0b4000b00e000e2ff3a0098
:1005c000000006009902ba00055d78008b05e9007d
:1005d000f7ff3200c82ade00055d78008b05e900d0
:1005e000f3ff32000c00e000f1ff320019ddba0029
:1005f000eeff37003600f800809fbe00829fbe00ed
:10060000849fbe00869fbe000000fa00c028a9009b
:100610000000eb00f60107000080fa004f03be0067
:100620004f02be004f01be004f00be003600f90071
:10063000004006003600f800809fbe00829fbe008a
:10064000849fbe00869fbe000000fa00ed010700f7
:10065000c048a90010002000e50107000080fa0052
:100660004f03be004f02be004f01be004f00be0050
:100670003600f900004006003600f800809fbe00fa
:10068000829fbe00849fbe00869fbe000000fa00cd
:10069000c068a90020002000d50107000080fa00f2
:1006a0004f03be004f02be004f01be004f00be0010
:1006b0003600f900004006003600f800809fbe00ba
:1006c000829fbe00849fbe00869fbe000000fa008d
:1006d000c088a90030002000c50107000080fa0092
:1006e0004f03be004f02be004f01be004f00be00d0
:1006f0003600f900004006003600f800809fbe007a
:10070000829fbe00849fbe00869fbe000000fa004c
:10071000c608a90070002000b50107000080fa009b
:100720004f03be004f02be004f01be004f00be008f
:100730003600f900004006003600f800809fbe0039
:10074000829fbe00849fbe00869fbe000000fa000c
:100750002146800000102000008060000000e000c2
:1007600003003200c508a900c0002000a001070056
:1007700020468000700060000000e00003003200ae
:10078000c488a900a000200099010700ffff3700de
:0c0790000040da000000fe000000050040
:020000040000fa
:10079c00c0f90000a4b000009992000082f800009b
:0407ac008090000039
:020000040000fa
:1007b0000000fa00007c80000080fa0000000600c3
:1007c0000200fa00faff0700000f78001e00780010
:1007d000240007000004e0000200320000002800ae
:1007e000710007001e0078002a0007000004e000e6
:1007f00002003200000024006b0007001e00780099
:10080000320007000004e000020032000020200057
:10081000650007001e0078003a0007000004e000b1
:1008200002003200000820005f0007001e00780070
:10083000420007000004e000020032000004200033
:10084000590007001e0078004a0007000004e0007d
:100850000200320000012000530007000080fa006f
:10086000000006000400fa00100798000040eb00aa
:10087000004f78001e0090000000e00002003d00e4
:1008800010c0b300004f78001e4078000080fa00ce
:10089000000006000400fa00100798000040eb007a
:1008a000004f78009e00900000002400008060004f
:1008b0000000e0000200320010c0b300004f7800da
:1008c0001e4078000080fa00000006000400fa00d4
:1008d000100798000040eb00004f78009e00900049
:1008e00000202000008060000000e00002003200d4
:1008f00010c0b300004f78001e4078000080fa005e
:10090000000006000400fa00100798000040eb0009
:10091000004f78009e0090000008200000806000da
:100920000000e0000200320010c0b300004f780069
:100930001e4078000080fa00000006000400fa0063
:10094000100798000040eb00004f78009e009000d8
:1009500000042000008060000000e000020032007f
:1009600010c0b300004f78001e4078000080fa00ed
:10097000000006000400fa00100798000040eb0099
:10098000004f78001e009000700060000000e00042
:100990000200320010c0b300004f78001e40780003
:1009a0000080fa00000006000200fa00000f780044
:1009b0009e80ea00007c800000806000007c88004f
:1009c0000080fa00000006000000fa00802fef000f
:1009d0000080fa00000006001000fa00600798008e
:1009e000614f9800e1004700e23c2800090009003f
:1009f000b25878006e4890000080fb000000e800cc
:100a00006e4f7800600007001e80fb0061006000f0
:100a1000004078000004e000090032006e00900001
:100a2000104078000080fb00110020000008dd006d
:100a300080007800d072800001007000d0728800c1
:100a40001e80fb00620060000000e0000900320030
:100a50006e009000104090000080fb00110020000c
:100a60000008dd0080007800d07280000100700076
:100a7000d07288001e80fb00640060000000e0006f
:100a8000090032006e009000204090000080fb00c2
:100a9000110020000008dd00800078001071800047
:100aa00001007000107188001e80fb00680060006b
:100ab0000000e000090032006e009000304090001d
:100ac0000080fb00110020000008dd00800078009d
:100ad0001071800001007000107188001e80fb0002
:100ae000700060000000e000090032006e0090001d
:100af000404090000080fb00110020000008dd0055
:100b00008000780010718000010070001071880072
:100b10009e80fb0000022000008060000000e000da
:100b2000090032006e009000504090000080fb00f1
:100b3000110020000008dd008000780010718000a6
:100b400001007000107188009e80fb0000042000ee
:100b5000008060000000e000090032006e0090009c
:100b6000604090000080fb00110020000008dd00c4
:100b70008000780010718000010070001071880002
:100b80000080fa00000006000000fa00d172800028
:100b9000d0ef2f0000806000d072880011718000bb
:100ba000f03f280000806000107188000080fa008b
:100bb000000006000000fa0010002300307c8800ce
:100bc00060092000407c88008c2fef00100420007a
:100bd000507c8800b82fef00ba2fef00be2fef0037
:100be000002def00a02fef00a42fef00a62fef00a5
:100bf000a82fef00aa2fef00ae2fef00b02fef00cd
:100c0000b22fef007200200080072000a109200011
:100c100053f82000804978008149780082497800a3
:100c20000001eb00600420007105200043f8200063
:100c30008049780081497800824978000080fa0074
:100c4000000006000000fa00062eef00222eef0042
:100c50003e2eef005a2eef00f001200010708800a9
:100c6000d03f2800f0708800f0ff2300d07188008a
:100c700000402200b07288000c2eef00282eef00fa
:100c8000442eef00602eef000a2eef00262eef001c
:100c9000422eef005e2eef00082eef00242eef0014
:100ca000402eef005c2eef00f00120000070880065
:100cb000d0092000e0708800f00c2000c07188008e
:100cc00000402200a07288000080fa0000000600a8
:100cd0000200fa00000f780021028000200f20009f
:100ce000008060001e007000200288000080fa0072
:100cf000000006000000fa00c3e8a80000000000a1
:100d0000000000000080fa00000006000000fa0069
:100d1000ccff0700a7ff070041000700f5ff070011
:100d200000022000eaff07000080fa000000060031
:100d30000200fa00f5ff07000000eb00000f78004a
:100d40000000eb00000f7800090037001e0078005b
:100d50000040780080407800200221001eff07003c
:100d600000482800e1012000050007001e0fe800f0
:100d70001e007800e90f5000f4ff3400f0ff370048
:020000040000fa
:100d8000f03fb1000180b10006003500ee0309001c
:100d900000000000403fb1000180b100fbff3d00ba
:100da0001000b000203fb0000200350000800900b4
:080db000000000000000060035
:020000040000fa
:100db80022100000080000008200000001080a005c
:100dc8000b0c0d000e0000000210000020000000b7
:100dd80080000000001000000200000082000000f7
:080de800ffff00000000000005
:020000040000fa
:100df0000200fa00000f78009e0078000180880051
:100e0000ffff37000000fa00200021008007780073
:100e1000a0012100000188000080fa000000060007
:0c0e20000000fa000080fa00000006004c
:020000040000fa
:020000040001f9
:045e0000ffffff00a1
:020000040000fa
:020000040001f9
:045e2000ffffff0081
:020000040000fa
:020000040001f9
:045e30007fffff00f1
:020000040000fa
:020000040001f9
:045e3800bfffff00a9
:020000040000fa
:020000040001f9
:045e40007f7fff0061
:020000040000fa
:020000040001f9
:045e4800ffffff0059
:020000040000fa
:020000040001f9
:045e5000dfffff0071
:020000040000fa
:020000040001f9
:045e58000000ff0047
:020000040000fa
:020000040001f9
:045e60000000ff003f
:020000040000fa
:020000040001f9
:045e68000000ff0037
:020000040000fa
:020000040001f9
:045e70000000ff002f
:020000040000fa
:020000040001f9
:045e7800ffffff0029
:020000040000fa
:020000040001f9
:045e8000fffcff0024
:020000040000fa
:020000040001f9
:045e8800ffffff0019
:00000001FF
