:020000040000fa
:080000000002040000000000f2
:020000040000fa
:04000800fa020000f8
:020000040000fa
:04000c003c030000b1
:020000040000fa
:040010007c0300006d
:020000040000fa
:040014001a030000cb
:020000040000fa
:040018005c03000085
:020000040000fa
:04001c00c803000015
:020000040000fa
:040020009c0300003d
:020000040000fa
:04002400c80300000d
:020000040000fa
:04002800c803000009
:020000040000fa
:04002c00c803000005
:020000040000fa
:04003000c803000001
:020000040000fa
:04003400c8030000fd
:020000040000fa
:04003800c8030000f9
:020000040000fa
:04003c00c8030000f5
:020000040000fa
:04004000c8030000f1
:020000040000fa
:04004400c8030000ed
:020000040000fa
:04004800c8030000e9
:020000040000fa
:04004c00c8030000e5
:020000040000fa
:04005000c8030000e1
:020000040000fa
:04005400c8030000dd
:020000040000fa
:04005800c8030000d9
:020000040000fa
:04005c00c8030000d5
:020000040000fa
:04006000c8030000d1
:020000040000fa
:04006400c8030000cd
:020000040000fa
:04006800c8030000c9
:020000040000fa
:04006c00c8030000c5
:020000040000fa
:04007000c8030000c1
:020000040000fa
:04007400c8030000bd
:020000040000fa
:04007800c8030000b9
:020000040000fa
:04007c00c8030000b5
:020000040000fa
:04008000c8030000b1
:020000040000fa
:04008400c8030000ad
:020000040000fa
:04008800c8030000a9
:020000040000fa
:04008c00c8030000a5
:020000040000fa
:04009000c8030000a1
:020000040000fa
:04009400c80300009d
:020000040000fa
:04009800c803000099
:020000040000fa
:04009c00c803000095
:020000040000fa
:0400a000c803000091
:020000040000fa
:0400a400c80300008d
:020000040000fa
:0400a800c803000089
:020000040000fa
:0400ac00c803000085
:020000040000fa
:0400b000c803000081
:020000040000fa
:0400b400c80300007d
:020000040000fa
:0400b800c803000079
:020000040000fa
:0400bc00c803000075
:020000040000fa
:0400c000c803000071
:020000040000fa
:0400c400c80300006d
:020000040000fa
:0400c800c803000069
:020000040000fa
:0400cc00c803000065
:020000040000fa
:0400d000c803000061
:020000040000fa
:0400d400c80300005d
:020000040000fa
:0400d800c803000059
:020000040000fa
:0400dc00c803000055
:020000040000fa
:0400e000c803000051
:020000040000fa
:0400e400c80300004d
:020000040000fa
:0400e800c803000049
:020000040000fa
:0400ec00c803000045
:020000040000fa
:0400f000c803000041
:020000040000fa
:0400f400c80300003d
:020000040000fa
:0400f800c803000039
:020000040000fa
:0400fc00c803000035
:020000040000fa
:04010000c803000030
:020000040000fa
:04010400c80300002c
:020000040000fa
:04010800c803000028
:020000040000fa
:04010c00c803000024
:020000040000fa
:04011000c803000020
:020000040000fa
:04011400c80300001c
:020000040000fa
:04011800c803000018
:020000040000fa
:04011c00c803000014
:020000040000fa
:04012000c803000010
:020000040000fa
:04012400c80300000c
:020000040000fa
:04012800c803000008
:020000040000fa
:04012c00c803000004
:020000040000fa
:04013000c803000000
:020000040000fa
:04013400c8030000fc
:020000040000fa
:04013800c8030000f8
:020000040000fa
:04013c00c8030000f4
:020000040000fa
:04014000c8030000f0
:020000040000fa
:04014400c8030000ec
:020000040000fa
:04014800c8030000e8
:020000040000fa
:04014c00c8030000e4
:020000040000fa
:04015000c8030000e0
:020000040000fa
:04015400c8030000dc
:020000040000fa
:04015800c8030000d8
:020000040000fa
:04015c00c8030000d4
:020000040000fa
:04016000c8030000d0
:020000040000fa
:04016400c8030000cc
:020000040000fa
:04016800c8030000c8
:020000040000fa
:04016c00c8030000c4
:020000040000fa
:04017000c8030000c0
:020000040000fa
:04017400c8030000bc
:020000040000fa
:04017800c8030000b8
:020000040000fa
:04017c00c8030000b4
:020000040000fa
:04018000c8030000b0
:020000040000fa
:04018400c8030000ac
:020000040000fa
:04018800c8030000a8
:020000040000fa
:04018c00c8030000a4
:020000040000fa
:04019000c8030000a0
:020000040000fa
:04019400c80300009c
:020000040000fa
:04019800c803000098
:020000040000fa
:04019c00c803000094
:020000040000fa
:0401a000c803000090
:020000040000fa
:0401a400c80300008c
:020000040000fa
:0401a800c803000088
:020000040000fa
:0401ac00c803000084
:020000040000fa
:0401b000c803000080
:020000040000fa
:0401b400c80300007c
:020000040000fa
:0401b800c803000078
:020000040000fa
:0401bc00c803000074
:020000040000fa
:0401c000c803000070
:020000040000fa
:0401c400c80300006c
:020000040000fa
:0401c800c803000068
:020000040000fa
:0401cc00c803000064
:020000040000fa
:0401d000c803000060
:020000040000fa
:0401d400c80300005c
:020000040000fa
:0401d800c803000058
:020000040000fa
:0401dc00c803000054
:020000040000fa
:0401e000c803000050
:020000040000fa
:0401e400c80300004c
:020000040000fa
:0401e800c803000048
:020000040000fa
:0401ec00c803000044
:020000040000fa
:0401f000c803000040
:020000040000fa
:0401f400c80300003c
:020000040000fa
:0401f800c803000038
:020000040000fa
:0401fc00c803000034
:020000040000fa
:04020000c80300002f
:020000040000fa
:04020400c80300002b
:020000040000fa
:04020800c803000027
:020000040000fa
:04020c00c803000023
:020000040000fa
:04021000c80300001f
:020000040000fa
:04021400c80300001b
:020000040000fa
:04021800c803000017
:020000040000fa
:04021c00c803000013
:020000040000fa
:04022000c80300000f
:020000040000fa
:04022400c80300000b
:020000040000fa
:04022800c803000007
:020000040000fa
:04022c00c803000003
:020000040000fa
:04023000c8030000ff
:020000040000fa
:04023400c8030000fb
:020000040000fa
:04023800c8030000f7
:020000040000fa
:04023c00c8030000f3
:020000040000fa
:04024000c8030000ef
:020000040000fa
:04024400c8030000eb
:020000040000fa
:04024800c8030000e7
:020000040000fa
:04024c00c8030000e3
:020000040000fa
:04025000c8030000df
:020000040000fa
:04025400c8030000db
:020000040000fa
:04025800c8030000d7
:020000040000fa
:04025c00c8030000d3
:020000040000fa
:04026000c8030000cf
:020000040000fa
:04026400c8030000cb
:020000040000fa
:04026800c8030000c7
:020000040000fa
:04026c00c8030000c3
:020000040000fa
:04027000c8030000bf
:020000040000fa
:04027400c8030000bb
:020000040000fa
:04027800c8030000b7
:020000040000fa
:04027c00c8030000b3
:020000040000fa
:04028000c8030000af
:020000040000fa
:04028400c8030000ab
:020000040000fa
:04028800c8030000a7
:020000040000fa
:04028c00c8030000a3
:020000040000fa
:04029000c80300009f
:020000040000fa
:04029400c80300009b
:020000040000fa
:04029800c803000097
:020000040000fa
:04029c00c803000093
:020000040000fa
:0402a000c80300008f
:020000040000fa
:0402a400c80300008b
:020000040000fa
:0402a800c803000087
:020000040000fa
:0402ac00c803000083
:020000040000fa
:0402b000c80300007f
:020000040000fa
:0402b400c80300007b
:020000040000fa
:0402b800c803000077
:020000040000fa
:0402bc00c803000073
:020000040000fa
:0402c000c80300006f
:020000040000fa
:0402c400c80300006b
:020000040000fa
:0402c800c803000067
:020000040000fa
:0402cc00c803000063
:020000040000fa
:0402d000c80300005f
:020000040000fa
:0402d400c80300005b
:020000040000fa
:0402d800c803000057
:020000040000fa
:0402dc00c803000053
:020000040000fa
:0402e000c80300004f
:020000040000fa
:0402e400c80300004b
:020000040000fa
:0402e800c803000047
:020000040000fa
:0402ec00c803000043
:020000040000fa
:0402f000c80300003f
:020000040000fa
:0402f400c80300003b
:020000040000fa
:0402f800c803000037
:020000040000fa
:0402fc00c803000033
:020000040000fa
:04030000c80300002e
:020000040000fa
:04030400c80300002a
:020000040000fa
:04030800c803000026
:020000040000fa
:04030c00c803000022
:020000040000fa
:04031000c80300001e
:020000040000fa
:04031400c80300001a
:020000040000fa
:04031800c803000016
:020000040000fa
:04031c00c803000012
:020000040000fa
:04032000c80300000e
:020000040000fa
:04032400c80300000a
:020000040000fa
:100400002f0221000eff22000e01880000000000d4
:10041000000020000000e000020032000001200087
:100420002002880014000700db0007000000e00045
:1004300003003a00605d2000010020000200370048
:100440000000200001002000810f70000100320038
:100450000f000700000020000000e0000200320052
:100460000000020000000000a005020000000000e3
:100470000040da000000fe00200020000000e00044
:1004800002003200100020009001880000000600e9
:10049000a1028800800478000000eb001f003700f4
:1004a000e284440054a0b4009905ba00e2844400f8
:1004b00054a0b4009906ba00e284440054a0b400e9
:1004c0000006eb00476fde00fd07b200ae018800ba
:1004d000636ce10003003a000ad801000000eb0061
:1004e0000e003700606ce10008003a00004deb00a0
:1004f0000a05e800020039003420ec000af0a000f0
:100500008b05e900f9ff3e00040037006168e10057
:10051000010032000086eb000b00070019c7ba008b
:100520001905ba000e04e00003003a000a00e000da
:10053000dbff3a0000000600fe07b200ae028800b2
:100540008a047800f5ff37000cd0a300e20f4d00bd
:100550001c003b0089027800354dba000a05e8000e
:10056000020039003420ec000af0a0008b05e900fd
:100570000f003200254dba000a05e80002003900dc
:100580003420ec000af0a0008b05e90008003200de
:100590000c00e0000600320015cdba000a05e800a4
:1005a000020039003420ec000af0a0008b05e900bd
:1005b0008984e80054a0b4000b00e000e2ff3a0098
:1005c000000006009902ba00055d78008b05e9007d
:1005d000f7ff3200c82ade00055d78008b05e900d0
:1005e000f3ff32000c00e000f1ff320019ddba0029
:1005f000eeff37003600f800809fbe00829fbe00ed
:10060000849fbe00869fbe000000fa00c028a9009b
:100610000000eb00590107000080fa004f03be0004
:100620004f02be004f01be004f00be003600f90071
:10063000004006003600f800809fbe00829fbe008a
:10064000849fbe00869fbe000000fa005001070094
:10065000c048a90010002000480107000080fa00ef
:100660004f03be004f02be004f01be004f00be0050
:100670003600f900004006003600f800809fbe00fa
:10068000829fbe00849fbe00869fbe000000fa00cd
:10069000c068a90020002000380107000080fa008f
:1006a0004f03be004f02be004f01be004f00be0010
:1006b0003600f900004006003600f800809fbe00ba
:1006c000829fbe00849fbe00869fbe000000fa008d
:1006d000c088a90030002000280107000080fa002f
:1006e0004f03be004f02be004f01be004f00be00d0
:1006f0003600f900004006003600f800809fbe007a
:10070000829fbe00849fbe00869fbe000000fa004c
:10071000c608a90070002000180107000080fa0038
:100720004f03be004f02be004f01be004f00be008f
:100730003600f900004006003600f800809fbe0039
:10074000829fbe00849fbe00869fbe000000fa000c
:100750002146800000102000008060000000e000c2
:1007600003003200c508a900c000200003010700f3
:1007700020468000700060000000e00003003200ae
:10078000c488a900a0002000fc000700ffff37007c
:0c0790000040da000000fe000000050040
:020000040000fa
:10079c000000fa00007c80000080fa0000000600d7
:1007ac000200fa00faff0700000f78001e00780024
:1007bc00240007000004e0000200320000002800c2
:1007cc00710007001e0078002a0007000004e000fa
:1007dc0002003200000024006b0007001e007800ad
:1007ec00320007000004e00002003200002020006c
:1007fc00650007001e0078003a0007000004e000c6
:10080c0002003200000820005f0007001e00780084
:10081c00420007000004e000020032000004200047
:10082c00590007001e0078004a0007000004e00091
:10083c000200320000012000530007000080fa0083
:10084c00000006000400fa00100798000040eb00be
:10085c00004f78001e0090000000e00002003d00f8
:10086c0010c0b300004f78001e4078000080fa00e2
:10087c00000006000400fa00100798000040eb008e
:10088c00004f78009e009000000024000080600063
:10089c000000e0000200320010c0b300004f7800ee
:1008ac001e4078000080fa00000006000400fa00e8
:1008bc00100798000040eb00004f78009e0090005d
:1008cc0000202000008060000000e00002003200e8
:1008dc0010c0b300004f78001e4078000080fa0072
:1008ec00000006000400fa00100798000040eb001e
:1008fc00004f78009e0090000008200000806000ef
:10090c000000e0000200320010c0b300004f78007d
:10091c001e4078000080fa00000006000400fa0077
:10092c00100798000040eb00004f78009e009000ec
:10093c0000042000008060000000e0000200320093
:10094c0010c0b300004f78001e4078000080fa0001
:10095c00000006000400fa00100798000040eb00ad
:10096c00004f78001e009000700060000000e00056
:10097c000200320010c0b300004f78001e40780017
:10098c000080fa00000006000200fa00000f780058
:10099c009e80ea00007c800000806000007c880063
:1009ac000080fa00000006000000fa00802fef0023
:1009bc000080fa00000006000000fa00100023007e
:1009cc00307c880020032000407c88008c2fef00b6
:1009dc0010042000507c8800b82fef00ba2fef00d5
:1009ec00be2fef00002def00a02fef00a42fef0083
:1009fc00a62fef00a82fef00aa2fef00ae2fef00cd
:100a0c00b02fef00b22fef000001eb0080072000a9
:100a1c00a109200053f82000804978008149780012
:100a2c00824978000001eb00600420007105200071
:100a3c0043f8200080497800814978008249780089
:100a4c000080fa00000006000000fa00062eef00fd
:100a5c00222eef003e2eef005a2eef00f001200068
:100a6c0010708800d0ff2f00f0708800f0ff23007a
:100a7c00d071880020102200b07288000c2eef007c
:100a8c00282eef00442eef00602eef000a2eef0010
:100a9c00262eef00422eef0000002200f07288009c
:100aac00082eef00242eef00402eef005c2eef00fe
:100abc00f001200000708800d0092000e070880050
:100acc00f00c2000c0718800542eef000080fa005a
:100adc00000006000200fa00000f780021028000de
:100aec00200f2000008060001e0070002002880093
:100afc000080fa00000006000000fa00c3e8a8001d
:100b0c0000000000000000000080fa000000060059
:100b1c000000fa00ccff0700a7ff07002800070021
:100b2c00f5ff070000022000eaff07000080fa0032
:100b3c00000006000000fa00f5ff0700c1728000fb
:100b4c0000002200008060000000e0000400320081
:100b5c00d072800000a0a100d0728800f7ff37008f
:100b6c00d072800000a0a000d0728800f3ff370084
:100b7c000200fa00000f78009e00780001808800c7
:100b8c00ffff37000000fa002000210080077800ea
:100b9c00a0012100000188000080fa00000006007e
:020000040000fa
:100bac000210000020000000800000000010000077
:100bbc000200000082000000ffff000000000000a7
:020000040000fa
:0c0bcc000000fa000080fa0000000600a3
:020000040000fa
:020000040001f9
:045e0000ffffff00a1
:020000040000fa
:020000040001f9
:045e2000ffffff0081
:020000040000fa
:020000040001f9
:045e300078ffff00f8
:020000040000fa
:020000040001f9
:045e38007fffff00e9
:020000040000fa
:020000040001f9
:045e40007f7fff0061
:020000040000fa
:020000040001f9
:045e4800ffffff0059
:020000040000fa
:020000040001f9
:045e5000dfffff0071
:020000040000fa
:020000040001f9
:045e58000000ff0047
:020000040000fa
:020000040001f9
:045e60000000ff003f
:020000040000fa
:020000040001f9
:045e68000000ff0037
:020000040000fa
:020000040001f9
:045e70000000ff002f
:020000040000fa
:020000040001f9
:045e7800ffffff0029
:020000040000fa
:020000040001f9
:045e8000fffcff0024
:020000040000fa
:020000040001f9
:045e8800ffffff0019
:00000001FF
