:020000040000fa
:080000000002040000000000f2
:020000040000fa
:04000800b803000039
:020000040000fa
:04000c004c030000a1
:020000040000fa
:040010006c0300007d
:020000040000fa
:04001400f8030000ed
:020000040000fa
:04001800d803000009
:020000040000fa
:04001c006a04000072
:020000040000fa
:040020008c0300004d
:020000040000fa
:040024006a0400006a
:020000040000fa
:040028001a040000b6
:020000040000fa
:04002c006a04000062
:020000040000fa
:040030006a0400005e
:020000040000fa
:040034006a0400005a
:020000040000fa
:040038006a04000056
:020000040000fa
:04003c006a04000052
:020000040000fa
:040040006a0400004e
:020000040000fa
:040044006a0400004a
:020000040000fa
:040048006a04000046
:020000040000fa
:04004c006a04000042
:020000040000fa
:040050006a0400003e
:020000040000fa
:040054006a0400003a
:020000040000fa
:040058006a04000036
:020000040000fa
:04005c006a04000032
:020000040000fa
:040060006a0400002e
:020000040000fa
:040064004004000054
:020000040000fa
:040068006a04000026
:020000040000fa
:04006c006a04000022
:020000040000fa
:040070006a0400001e
:020000040000fa
:040074006a0400001a
:020000040000fa
:040078006a04000016
:020000040000fa
:04007c006a04000012
:020000040000fa
:040080006a0400000e
:020000040000fa
:040084006a0400000a
:020000040000fa
:040088006a04000006
:020000040000fa
:04008c006a04000002
:020000040000fa
:040090006a040000fe
:020000040000fa
:040094006a040000fa
:020000040000fa
:040098006a040000f6
:020000040000fa
:04009c006a040000f2
:020000040000fa
:0400a0006a040000ee
:020000040000fa
:0400a4006a040000ea
:020000040000fa
:0400a8006a040000e6
:020000040000fa
:0400ac006a040000e2
:020000040000fa
:0400b0006a040000de
:020000040000fa
:0400b4006a040000da
:020000040000fa
:0400b8006a040000d6
:020000040000fa
:0400bc006a040000d2
:020000040000fa
:0400c0006a040000ce
:020000040000fa
:0400c4006a040000ca
:020000040000fa
:0400c8006a040000c6
:020000040000fa
:0400cc006a040000c2
:020000040000fa
:0400d0006a040000be
:020000040000fa
:0400d4006a040000ba
:020000040000fa
:0400d8006a040000b6
:020000040000fa
:0400dc0026030000f7
:020000040000fa
:0400e0006a040000ae
:020000040000fa
:0400e4006a040000aa
:020000040000fa
:0400e8006a040000a6
:020000040000fa
:0400ec006a040000a2
:020000040000fa
:0400f0006a0400009e
:020000040000fa
:0400f4006a0400009a
:020000040000fa
:0400f8006a04000096
:020000040000fa
:0400fc006a04000092
:020000040000fa
:040100006a0400008d
:020000040000fa
:040104006a04000089
:020000040000fa
:040108006a04000085
:020000040000fa
:04010c006a04000081
:020000040000fa
:040110006a0400007d
:020000040000fa
:040114006a04000079
:020000040000fa
:040118006a04000075
:020000040000fa
:04011c006a04000071
:020000040000fa
:040120006a0400006d
:020000040000fa
:040124006a04000069
:020000040000fa
:040128006a04000065
:020000040000fa
:04012c006a04000061
:020000040000fa
:040130006a0400005d
:020000040000fa
:040134006a04000059
:020000040000fa
:040138006a04000055
:020000040000fa
:04013c006a04000051
:020000040000fa
:040140006a0400004d
:020000040000fa
:040144006a04000049
:020000040000fa
:040148006a04000045
:020000040000fa
:04014c006a04000041
:020000040000fa
:040150006a0400003d
:020000040000fa
:040154006a04000039
:020000040000fa
:040158006a04000035
:020000040000fa
:04015c006a04000031
:020000040000fa
:040160006a0400002d
:020000040000fa
:040164006a04000029
:020000040000fa
:040168006a04000025
:020000040000fa
:04016c006a04000021
:020000040000fa
:040170006a0400001d
:020000040000fa
:040174006a04000019
:020000040000fa
:040178006a04000015
:020000040000fa
:04017c006a04000011
:020000040000fa
:040180006a0400000d
:020000040000fa
:040184006a04000009
:020000040000fa
:040188006a04000005
:020000040000fa
:04018c006a04000001
:020000040000fa
:040190006a040000fd
:020000040000fa
:040194006a040000f9
:020000040000fa
:040198006a040000f5
:020000040000fa
:04019c006a040000f1
:020000040000fa
:0401a0006a040000ed
:020000040000fa
:0401a4006a040000e9
:020000040000fa
:0401a8006a040000e5
:020000040000fa
:0401ac006a040000e1
:020000040000fa
:0401b0006a040000dd
:020000040000fa
:0401b4006a040000d9
:020000040000fa
:0401b8006a040000d5
:020000040000fa
:0401bc006a040000d1
:020000040000fa
:0401c0006a040000cd
:020000040000fa
:0401c4006a040000c9
:020000040000fa
:0401c8006a040000c5
:020000040000fa
:0401cc006a040000c1
:020000040000fa
:0401d0006a040000bd
:020000040000fa
:0401d4006a040000b9
:020000040000fa
:0401d8006a040000b5
:020000040000fa
:0401dc006a040000b1
:020000040000fa
:0401e0006a040000ad
:020000040000fa
:0401e4006a040000a9
:020000040000fa
:0401e8006a040000a5
:020000040000fa
:0401ec006a040000a1
:020000040000fa
:0401f0006a0400009d
:020000040000fa
:0401f4006a04000099
:020000040000fa
:0401f8006a04000095
:020000040000fa
:0401fc006a04000091
:020000040000fa
:040200006a0400008c
:020000040000fa
:040204006a04000088
:020000040000fa
:040208006a04000084
:020000040000fa
:04020c006a04000080
:020000040000fa
:040210006a0400007c
:020000040000fa
:040214006a04000078
:020000040000fa
:040218006a04000074
:020000040000fa
:04021c006a04000070
:020000040000fa
:040220006a0400006c
:020000040000fa
:040224006a04000068
:020000040000fa
:040228006a04000064
:020000040000fa
:04022c006a04000060
:020000040000fa
:040230006a0400005c
:020000040000fa
:040234006a04000058
:020000040000fa
:040238006a04000054
:020000040000fa
:04023c006a04000050
:020000040000fa
:040240006a0400004c
:020000040000fa
:040244006a04000048
:020000040000fa
:040248006a04000044
:020000040000fa
:04024c006a04000040
:020000040000fa
:040250006a0400003c
:020000040000fa
:040254006a04000038
:020000040000fa
:040258006a04000034
:020000040000fa
:04025c006a04000030
:020000040000fa
:040260006a0400002c
:020000040000fa
:040264006a04000028
:020000040000fa
:040268006a04000024
:020000040000fa
:04026c006a04000020
:020000040000fa
:040270006a0400001c
:020000040000fa
:040274006a04000018
:020000040000fa
:040278006a04000014
:020000040000fa
:04027c006a04000010
:020000040000fa
:040280006a0400000c
:020000040000fa
:040284006a04000008
:020000040000fa
:040288006a04000004
:020000040000fa
:04028c006a04000000
:020000040000fa
:040290006a040000fc
:020000040000fa
:040294006a040000f8
:020000040000fa
:040298006a040000f4
:020000040000fa
:04029c006a040000f0
:020000040000fa
:0402a0006a040000ec
:020000040000fa
:0402a4006a040000e8
:020000040000fa
:0402a8006a040000e4
:020000040000fa
:0402ac006a040000e0
:020000040000fa
:0402b0006a040000dc
:020000040000fa
:0402b4006a040000d8
:020000040000fa
:0402b8006a040000d4
:020000040000fa
:0402bc006a040000d0
:020000040000fa
:0402c0006a040000cc
:020000040000fa
:0402c4006a040000c8
:020000040000fa
:0402c8006a040000c4
:020000040000fa
:0402cc006a040000c0
:020000040000fa
:0402d0006a040000bc
:020000040000fa
:0402d4006a040000b8
:020000040000fa
:0402d8006a040000b4
:020000040000fa
:0402dc006a040000b0
:020000040000fa
:0402e0006a040000ac
:020000040000fa
:0402e4006a040000a8
:020000040000fa
:0402e8006a040000a4
:020000040000fa
:0402ec006a040000a0
:020000040000fa
:0402f0006a0400009c
:020000040000fa
:0402f4006a04000098
:020000040000fa
:0402f8006a04000094
:020000040000fa
:0402fc006a04000090
:020000040000fa
:040300006a0400008b
:020000040000fa
:040304006a04000087
:020000040000fa
:040308006a04000083
:020000040000fa
:04030c006a0400007f
:020000040000fa
:040310006a0400007b
:020000040000fa
:040314006a04000077
:020000040000fa
:040318006a04000073
:020000040000fa
:04031c006a0400006f
:020000040000fa
:040320006a0400006b
:020000040000fa
:040324006a04000067
:020000040000fa
:100400000f0321000eff22000e01880000000000f3
:10041000000020000000e000020032000001200087
:1004200020028800140007002c0107000000e000f3
:1004300003003a00809620000100200002003700ef
:100440000000200001002000810f70000100320038
:100450000f000700000020000000e0000200320052
:10046000000002000000000004090200000000007b
:100470000040da000000fe00000120000000e00063
:1004800002003200002020009001880000000600d9
:10049000a1028800800478000000eb001f003700f4
:1004a000e284440054a0b4009905ba00e2844400f8
:1004b00054a0b4009906ba00e284440054a0b400e9
:1004c0000006eb00476fde00fd07b200ae018800ba
:1004d000636ce10003003a000ad801000000eb0061
:1004e0000e003700606ce10008003a00004deb00a0
:1004f0000a05e800020039003420ec000af0a000f0
:100500008b05e900f9ff3e00040037006168e10057
:10051000010032000086eb000b00070019c7ba008b
:100520001905ba000e04e00003003a000a00e000da
:10053000dbff3a0000000600fe07b200ae028800b2
:100540008a047800f5ff37000cd0a300e20f4d00bd
:100550001c003b0089027800354dba000a05e8000e
:10056000020039003420ec000af0a0008b05e900fd
:100570000f003200254dba000a05e80002003900dc
:100580003420ec000af0a0008b05e90008003200de
:100590000c00e0000600320015cdba000a05e800a4
:1005a000020039003420ec000af0a0008b05e900bd
:1005b0008984e80054a0b4000b00e000e2ff3a0098
:1005c000000006009902ba00055d78008b05e9007d
:1005d000f7ff3200c82ade00055d78008b05e900d0
:1005e000f3ff32000c00e000f1ff320019ddba0029
:1005f000eeff3700000000000000000000000000d7
:1006000000000000000000000000000000000000ea
:1006100000000000000000000000000000000000da
:1006200000000000000000000000000000000000ca
:1006300000000000000000000000000000000000ba
:100640000000000000000000000000003600f8007c
:10065000809fbe00829fbe00849fbe00869fbe001a
:100660000000fa00308080000000e000020032004c
:10067000308080000000010005a8a9000080fa0079
:100680004f03be004f02be004f01be004f00be0030
:100690003600f900004006003600f800809fbe00da
:1006a000829fbe00849fbe00869fbe000000fa00ad
:1006b000c068a90020002000f70207000080fa00af
:1006c0004f03be004f02be004f01be004f00be00f0
:1006d0003600f900004006003600f800809fbe009a
:1006e000829fbe00849fbe00869fbe000000fa006d
:1006f000c608a90070002000e70207000080fa0089
:100700004f03be004f02be004f01be004f00be00af
:100710003600f900004006003600f800809fbe0059
:10072000829fbe00849fbe00869fbe000000fa002c
:1007300020468000700060000000e00003003200ee
:10074000c488a900a0002000d30207002146800031
:1007500000102000008060000000e0000300320074
:10076000c508a900c0002000cb020700ffff37002a
:100770003600f800809fbe00829fbe00849fbe00ae
:10078000869fbe000000fa00c028a9000000eb0010
:10079000c10207000080fa004f03be004f02be00f6
:1007a0004f01be004f00be003600f90000400600b9
:1007b0003600f800809fbe00829fbe00849fbe006e
:1007c000869fbe000000fa00c088a900300020000b
:1007d000b10207000080fa004f03be004f02be00c6
:1007e0004f01be004f00be003600f9000040060079
:1007f0003600f800809fbe00829fbe00849fbe002e
:10080000869fbe000000fa00aa020700c048a900a7
:1008100010002000a00207000080fa004f03be0075
:100820004f02be004f01be004f00be003600f9006f
:10083000004006003600f800809fbe00829fbe0088
:10084000849fbe00869fbe000000fa0040808000aa
:100850000000e00002003200408080000000010043
:100860000008a9000080fa004f03be004f02be003e
:100870004f01be004f00be003600f90000400600e8
:100880003600f800809fbe00829fbe00849fbe009d
:10089000869fbe000000fa0010c0b3000cf0b70045
:1008a000508080000000e000020032005080800094
:1008b0000000010001e8a9000080fa004f03be001b
:1008c0004f02be004f01be004f00be003600f900cf
:1008d000004006000040da000000fe0000000500b5
:020000040000fa
:1008e00094050000be050000dc050000f8050000ce
:1008f00014060000300600004c06000068060000e8
:020000040000fa
:100900000400fa00100798000040eb00004f780048
:100910001e0090000000e00002003d0010c0b30087
:10092000004f78001e4078000080fa0000000600aa
:100930000400fa00100798000040eb00004f780018
:100940009e00900000002400008060000000e00095
:100950000200320010c0b300004f78001e40780043
:100960000080fa00000006000400fa00100798005a
:100970000040eb00004f78009e0090000020200017
:10098000008060000000e0000200320010c0b300f0
:10099000004f78001e4078000080fa00000006003a
:1009a0000400fa00100798000040eb00004f7800a8
:1009b0009e00900000082000008060000000e00021
:1009c0000200320010c0b300004f78001e407800d3
:1009d0000080fa00000006000400fa0010079800ea
:1009e0000040eb00004f78009e00900000042000c3
:1009f000008060000000e0000200320010c0b30080
:100a0000004f78001e4078000080fa0000000600c9
:100a10000400fa00100798000040eb00004f780037
:100a20001e009000700060000000e0000200320034
:100a300010c0b300004f78001e4078000080fa001c
:100a4000000006000200fa00000f78009e80ea0015
:100a5000007c800000806000007c88000080fa003c
:100a6000000006000000fa00007c80000080fa0010
:100a7000000006000200fa00faff0700000f7800ed
:100a80001e0078009eff07000004e0000200320014
:100a900000002800ebff07001e007800a4ff0700fd
:100aa0000004e0000200320000002400e5ff07001f
:100ab0001e007800acff07000004e00002003200d6
:100ac00000202000dfff07001e007800b4ff0700b1
:100ad0000004e0000200320000082000d9ff0700f7
:100ae0001e007800bcff07000004e0000200320096
:100af00000042000d3ff07001e007800c4ff070099
:100b00000004e0000200320000012000cdff0700d9
:100b10000080fa00000006000000fa00802fef00bd
:100b20000080fa00000006000000fa000000eb0060
:100b3000590007000000eb001f0007000000eb0059
:100b400039000700100020005300070010002000ab
:100b5000270007001000200033000700c1692000b3
:100b60000000eb005a000700216a2000100020005e
:100b7000570007000080fa00000006000000fa009d
:100b80000000eb00440007000000eb003400070009
:100b90000000eb0008000700100020003e000700e6
:100ba000100020002e0007001000200002000700a7
:100bb0000080fa00000006000200fa00000f780032
:100bc0001e0078000000e00003003200e10f50003a
:100bd0000300320004003700c208a90002003700f9
:100be000c228a900000000000080fa0000000600f2
:100bf0000200fa00000f78001e0078000000e000fc
:100c000003003200e10f50000300320004003700ff
:100c1000c208a80002003700c228a8000000000097
:100c20000080fa00000006000200fa00000f7800c1
:100c30001e0078000000e00003003200e10f5000c9
:100c400003003200040037002008a800020037002b
:100c500021e8a800000000000080fa000000060063
:100c60000200fa00000f78001e0078000000e0008b
:100c700003003200e10f500003003200040037008f
:100c80002008a9000200370021e8a90000000000a8
:100c90000080fa00000006000200fa00000f780051
:100ca0001e0078000000e00003003200e10f500059
:100cb00003003200040037000008a90002003700da
:100cc00001e8a900000000000080fa000000060012
:100cd0000400fa00000f7800110798001e00780049
:100ce0000000e00003003200e10f50000700320076
:100cf0000f0037001e0090000000e00009003200e5
:100d00001e00900040808800090037001e009000ff
:100d10000000e000050032001e00900050808800b6
:100d20000300370000000000010037000000000051
:100d30000080fa00000006000000fa000080fa00bf
:100d4000000006000000fa000080fa000000060023
:100d50000000fa00c3e8a800000000000000000046
:100d60000080fa00000006000000fa00c3e8a900b5
:100d700000000000000000000080fa0000000600f3
:100d80000000fa00f8ff070011010700f0ff07005c
:100d9000007a20006100070025a8a8000080fa0062
:100da000000006000000fa0000002800e0028800b1
:100db0000080fa00000006000000fa000000240095
:100dc0000003880010c0b30000f0b7000080fa00f4
:100dd000000006000000fa000070ef0000000000b4
:100de00040038000610060000000e000fcff320072
:100df00080002000200388000080fa000000060028
:100e00000200fa000040eb00004f78004003800031
:100e100061006000004078000004e0000200320041
:100e200010c0b300004f78001e4078000080fa0028
:100e3000000006000000fa0000d0bf000080fa00a9
:100e4000000006000400fa006000b800008fbe0039
:100e5000b00380008000eb00c000dd000000200037
:100e6000008fbe00a00380008000eb003e017000f8
:100e7000ae8170000200be000080fa000000060093
:100e80000400fa006000b800008fbe00d0038000ac
:100e90008000eb00c000dd0000002000008fbe00dd
:100ea000c00380008000eb003e017000ae81700046
:100eb0000200be000080fa00000006000200fa00f6
:100ec0000000eb00000f780041038000100e2000ae
:100ed000008f60001e0078000080fa00000006000d
:100ee0000400fa006000b800008fbe0070038000ac
:100ef0008000eb00c000dd0000002000008fbe007d
:100f0000600380008000eb003e017000ae81700045
:100f10000200be000080fa00000006000200fa0095
:100f2000000f78001e0078000000e0000200320090
:100f30001e007800308088000080fa000000060063
:100f40000000fa000080fa00000006000000fa002d
:100f5000b1428000f0f82f00008060000040a00047
:100f6000b042880061428000f08f2f000080600056
:100f70000080a000604288005142800080ff2f0066
:100f8000008060000000a0005042880031428000d4
:100f9000f0ff28000080600000e0a00030428800e0
:100fa000004280007000b300004288000080fa0018
:100fb000000006000000fa00b1428000f0f82f00a7
:100fc000008060000060a000b042880061428000a4
:100fd000f08f2f000080600000a0a0006042880019
:100fe0005142800080ff2f00008060000020a000a0
:100ff0005042880031428000f0ff280000806000ed
:1010000000e0a000304288000142800080ff2f00f5
:10101000008060000020a000004288000080fa00ec
:10102000000006000000fa00062eef00222eef005e
:101030003e2eef005a2eef00f001200010708800c5
:101040000080eb00f0708800f0ff2300d071880072
:1010500020102200b07288000a2eef00400020000d
:1010600030718800422eef0000002200f0728800ec
:101070000c2eef00282eef00442eef00602eef0024
:10108000082eef00242eef00402eef005c2eef0024
:10109000f001200000708800b0092000e070880096
:1010a000f00c2000c0718800542eef000000eb000f
:1010b00051052000b1468800a10a2000b1468800f1
:1010c00000688800d0c4b30005edb70000802000a0
:1010d00051052000b1468800a10a2000b1468800d1
:1010e000006888000080fa00000006000000fa0096
:1010f00010002300307c880020032000407c880002
:101100008c2fef0010012000507c8800b82fef00da
:10111000ba2fef00be2fef00002def00a02fef0041
:10112000a42fef00a62fef00a82fef00aa2fef00ab
:10113000ae2fef00b02fef00b22fef001200200013
:1011400080072000a109200053f820008049780082
:101150008149780082497800120020006004200054
:101160007105200043f8200080497800814978000b
:101170008249780000000000207c8000610060004f
:101180000000e000fcff3a0000000000217c80002d
:1011900000022000008060000000e000fbff320041
:1011a0000080fa00000006000000fe004cff07006f
:1011b000821f7800128080000000110002002000d1
:1011c000810019004f017800000006000000fe00b9
:1011d000801f7800811f7800821f780060038000e4
:1011e000801f78003eff07004f0178000201500089
:1011f0000201e900128088004f017800cf007800da
:101200004f007800000006000000fa0019000700f7
:1012100001003700000000000cd0bf000004e00017
:10122000fcff3200d0728000aa800a00000000009b
:101230000004a200614060000080fb0061006000cb
:101240004a00dd00d172800001a0a1000100700001
:10125000d07288000c70ef00efff37000000fa003a
:10126000c3e8a80000000000000000000080fa00b1
:10127000000006000000fa009cff070069ff07005d
:10128000bffe070028fe0700f4ff07002fff07003e
:101290000080fa00000006000200fa00000f78004b
:1012a0009e007800718088000000fe000080fa0037
:1012b000000006000000fa0000012100800778000d
:1012c00080022100000188000080fa000000060072
:020000040000fa
:1012d0000010000008000000800000001010000056
:1012e00020000000800000000e100000020000003e
:1012f00082000000ffff0000081000000600000050
:08130000800000000000000065
:020000040000fa
:020000040001f9
:045e0000ffffff00a1
:020000040000fa
:020000040001f9
:045e2000ffffff0081
:020000040000fa
:020000040001f9
:045e300078ffff00f8
:020000040000fa
:020000040001f9
:045e38007bffff00ed
:020000040000fa
:020000040001f9
:045e4000f453ff0018
:020000040000fa
:020000040001f9
:045e4800ffffff0059
:020000040000fa
:020000040001f9
:045e5000dfffff0071
:020000040000fa
:020000040001f9
:045e58000000ff0047
:020000040000fa
:020000040001f9
:045e60000000ff003f
:020000040000fa
:020000040001f9
:045e68000000ff0037
:020000040000fa
:020000040001f9
:045e70000000ff002f
:020000040000fa
:020000040001f9
:045e7800ffffff0029
:020000040000fa
:020000040001f9
:045e8000fffcff0024
:020000040000fa
:020000040001f9
:045e8800ffffff0019
:00000001FF
