:020000040000fa
:080000000002040000000000f2
:020000040000fa
:04000800dc03000015
:020000040000fa
:04000c00700300007d
:020000040000fa
:040010009003000059
:020000040000fa
:040014001c040000c8
:020000040000fa
:04001800fc030000e5
:020000040000fa
:04001c003e0400009e
:020000040000fa
:04002000b003000029
:020000040000fa
:040024003e04000096
:020000040000fa
:040028003e04000092
:020000040000fa
:04002c004c03000081
:020000040000fa
:040030003e0400008a
:020000040000fa
:040034003e04000086
:020000040000fa
:040038003e04000082
:020000040000fa
:04003c003e0400007e
:020000040000fa
:040040003e0400007a
:020000040000fa
:040044003e04000076
:020000040000fa
:040048003e04000072
:020000040000fa
:04004c003e0400006e
:020000040000fa
:040050003e0400006a
:020000040000fa
:040054003e04000066
:020000040000fa
:040058003e04000062
:020000040000fa
:04005c003e0400005e
:020000040000fa
:040060003e0400005a
:020000040000fa
:040064003e04000056
:020000040000fa
:040068003e04000052
:020000040000fa
:04006c003e0400004e
:020000040000fa
:040070003e0400004a
:020000040000fa
:040074003e04000046
:020000040000fa
:040078003e04000042
:020000040000fa
:04007c003e0400003e
:020000040000fa
:040080003e0400003a
:020000040000fa
:040084003e04000036
:020000040000fa
:040088003e04000032
:020000040000fa
:04008c003e0400002e
:020000040000fa
:040090003e0400002a
:020000040000fa
:040094003e04000026
:020000040000fa
:040098003e04000022
:020000040000fa
:04009c003e0400001e
:020000040000fa
:0400a0003e0400001a
:020000040000fa
:0400a4003e04000016
:020000040000fa
:0400a8003e04000012
:020000040000fa
:0400ac003e0400000e
:020000040000fa
:0400b0003e0400000a
:020000040000fa
:0400b4003e04000006
:020000040000fa
:0400b8003e04000002
:020000040000fa
:0400bc003e040000fe
:020000040000fa
:0400c0003e040000fa
:020000040000fa
:0400c4003e040000f6
:020000040000fa
:0400c8003e040000f2
:020000040000fa
:0400cc003e040000ee
:020000040000fa
:0400d0003e040000ea
:020000040000fa
:0400d4003e040000e6
:020000040000fa
:0400d8003e040000e2
:020000040000fa
:0400dc0026030000f7
:020000040000fa
:0400e0003e040000da
:020000040000fa
:0400e4003e040000d6
:020000040000fa
:0400e8003e040000d2
:020000040000fa
:0400ec003e040000ce
:020000040000fa
:0400f0003e040000ca
:020000040000fa
:0400f4003e040000c6
:020000040000fa
:0400f8003e040000c2
:020000040000fa
:0400fc003e040000be
:020000040000fa
:040100003e040000b9
:020000040000fa
:040104003e040000b5
:020000040000fa
:040108003e040000b1
:020000040000fa
:04010c003e040000ad
:020000040000fa
:040110003e040000a9
:020000040000fa
:040114003e040000a5
:020000040000fa
:040118003e040000a1
:020000040000fa
:04011c003e0400009d
:020000040000fa
:040120003e04000099
:020000040000fa
:040124003e04000095
:020000040000fa
:040128003e04000091
:020000040000fa
:04012c003e0400008d
:020000040000fa
:040130003e04000089
:020000040000fa
:040134003e04000085
:020000040000fa
:040138003e04000081
:020000040000fa
:04013c003e0400007d
:020000040000fa
:040140003e04000079
:020000040000fa
:040144003e04000075
:020000040000fa
:040148003e04000071
:020000040000fa
:04014c003e0400006d
:020000040000fa
:040150003e04000069
:020000040000fa
:040154003e04000065
:020000040000fa
:040158003e04000061
:020000040000fa
:04015c003e0400005d
:020000040000fa
:040160003e04000059
:020000040000fa
:040164003e04000055
:020000040000fa
:040168003e04000051
:020000040000fa
:04016c003e0400004d
:020000040000fa
:040170003e04000049
:020000040000fa
:040174003e04000045
:020000040000fa
:040178003e04000041
:020000040000fa
:04017c003e0400003d
:020000040000fa
:040180003e04000039
:020000040000fa
:040184003e04000035
:020000040000fa
:040188003e04000031
:020000040000fa
:04018c003e0400002d
:020000040000fa
:040190003e04000029
:020000040000fa
:040194003e04000025
:020000040000fa
:040198003e04000021
:020000040000fa
:04019c003e0400001d
:020000040000fa
:0401a0003e04000019
:020000040000fa
:0401a4003e04000015
:020000040000fa
:0401a8003e04000011
:020000040000fa
:0401ac003e0400000d
:020000040000fa
:0401b0003e04000009
:020000040000fa
:0401b4003e04000005
:020000040000fa
:0401b8003e04000001
:020000040000fa
:0401bc003e040000fd
:020000040000fa
:0401c0003e040000f9
:020000040000fa
:0401c4003e040000f5
:020000040000fa
:0401c8003e040000f1
:020000040000fa
:0401cc003e040000ed
:020000040000fa
:0401d0003e040000e9
:020000040000fa
:0401d4003e040000e5
:020000040000fa
:0401d8003e040000e1
:020000040000fa
:0401dc003e040000dd
:020000040000fa
:0401e0003e040000d9
:020000040000fa
:0401e4003e040000d5
:020000040000fa
:0401e8003e040000d1
:020000040000fa
:0401ec003e040000cd
:020000040000fa
:0401f0003e040000c9
:020000040000fa
:0401f4003e040000c5
:020000040000fa
:0401f8003e040000c1
:020000040000fa
:0401fc003e040000bd
:020000040000fa
:040200003e040000b8
:020000040000fa
:040204003e040000b4
:020000040000fa
:040208003e040000b0
:020000040000fa
:04020c003e040000ac
:020000040000fa
:040210003e040000a8
:020000040000fa
:040214003e040000a4
:020000040000fa
:040218003e040000a0
:020000040000fa
:04021c003e0400009c
:020000040000fa
:040220003e04000098
:020000040000fa
:040224003e04000094
:020000040000fa
:040228003e04000090
:020000040000fa
:04022c003e0400008c
:020000040000fa
:040230003e04000088
:020000040000fa
:040234003e04000084
:020000040000fa
:040238003e04000080
:020000040000fa
:04023c003e0400007c
:020000040000fa
:040240003e04000078
:020000040000fa
:040244003e04000074
:020000040000fa
:040248003e04000070
:020000040000fa
:04024c003e0400006c
:020000040000fa
:040250003e04000068
:020000040000fa
:040254003e04000064
:020000040000fa
:040258003e04000060
:020000040000fa
:04025c003e0400005c
:020000040000fa
:040260003e04000058
:020000040000fa
:040264003e04000054
:020000040000fa
:040268003e04000050
:020000040000fa
:04026c003e0400004c
:020000040000fa
:040270003e04000048
:020000040000fa
:040274003e04000044
:020000040000fa
:040278003e04000040
:020000040000fa
:04027c003e0400003c
:020000040000fa
:040280003e04000038
:020000040000fa
:040284003e04000034
:020000040000fa
:040288003e04000030
:020000040000fa
:04028c003e0400002c
:020000040000fa
:040290003e04000028
:020000040000fa
:040294003e04000024
:020000040000fa
:040298003e04000020
:020000040000fa
:04029c003e0400001c
:020000040000fa
:0402a0003e04000018
:020000040000fa
:0402a4003e04000014
:020000040000fa
:0402a8003e04000010
:020000040000fa
:0402ac003e0400000c
:020000040000fa
:0402b0003e04000008
:020000040000fa
:0402b4003e04000004
:020000040000fa
:0402b8003e04000000
:020000040000fa
:0402bc003e040000fc
:020000040000fa
:0402c0003e040000f8
:020000040000fa
:0402c4003e040000f4
:020000040000fa
:0402c8003e040000f0
:020000040000fa
:0402cc003e040000ec
:020000040000fa
:0402d0003e040000e8
:020000040000fa
:0402d4003e040000e4
:020000040000fa
:0402d8003e040000e0
:020000040000fa
:0402dc003e040000dc
:020000040000fa
:0402e0003e040000d8
:020000040000fa
:0402e4003e040000d4
:020000040000fa
:0402e8003e040000d0
:020000040000fa
:0402ec003e040000cc
:020000040000fa
:0402f0003e040000c8
:020000040000fa
:0402f4003e040000c4
:020000040000fa
:0402f8003e040000c0
:020000040000fa
:0402fc003e040000bc
:020000040000fa
:040300003e040000b7
:020000040000fa
:040304003e040000b3
:020000040000fa
:040308003e040000af
:020000040000fa
:04030c003e040000ab
:020000040000fa
:040310003e040000a7
:020000040000fa
:040314003e040000a3
:020000040000fa
:040318003e0400009f
:020000040000fa
:04031c003e0400009b
:020000040000fa
:040320003e04000097
:020000040000fa
:040324003e04000093
:020000040000fa
:10040000ef0221000eff22000e0188000000000014
:10041000000020000000e000020032000001200087
:100420002002880014000700160107000000e00009
:1004300003003a002087200001002000020037005e
:100440000000200001002000810f70000100320038
:100450000f000700000020000000e0000200320052
:1004600000000200000000000e0802000000000072
:100470000040da000000fe00400120000000e00023
:1004800002003200002020009001880000000600d9
:10049000a1028800800478000000eb001f003700f4
:1004a000e284440054a0b4009905ba00e2844400f8
:1004b00054a0b4009906ba00e284440054a0b400e9
:1004c0000006eb00476fde00fd07b200ae018800ba
:1004d000636ce10003003a000ad801000000eb0061
:1004e0000e003700606ce10008003a00004deb00a0
:1004f0000a05e800020039003420ec000af0a000f0
:100500008b05e900f9ff3e00040037006168e10057
:10051000010032000086eb000b00070019c7ba008b
:100520001905ba000e04e00003003a000a00e000da
:10053000dbff3a0000000600fe07b200ae028800b2
:100540008a047800f5ff37000cd0a300e20f4d00bd
:100550001c003b0089027800354dba000a05e8000e
:10056000020039003420ec000af0a0008b05e900fd
:100570000f003200254dba000a05e80002003900dc
:100580003420ec000af0a0008b05e90008003200de
:100590000c00e0000600320015cdba000a05e800a4
:1005a000020039003420ec000af0a0008b05e900bd
:1005b0008984e80054a0b4000b00e000e2ff3a0098
:1005c000000006009902ba00055d78008b05e9007d
:1005d000f7ff3200c82ade00055d78008b05e900d0
:1005e000f3ff32000c00e000f1ff320019ddba0029
:1005f000eeff3700000000000000000000000000d7
:1006000000000000000000000000000000000000ea
:1006100000000000000000000000000000000000da
:1006200000000000000000000000000000000000ca
:1006300000000000000000000000000000000000ba
:100640000000000000000000000000003600f8007c
:10065000809fbe00829fbe00849fbe00869fbe001a
:100660000000fa00308080000000e000020032004c
:10067000308080000000010005a8a9000080fa0079
:100680004f03be004f02be004f01be004f00be0030
:100690003600f900004006003600f800809fbe00da
:1006a000829fbe00849fbe00869fbe000000fa00ad
:1006b00010c0b30008f0b7005080800000000100b7
:1006c0000028a9000080fa004f03be004f02be00c0
:1006d0004f01be004f00be003600f900004006008a
:1006e0003600f800809fbe00829fbe00849fbe003f
:1006f000869fbe000000fa00c068a900200020000c
:100700006a0207000080fa004f03be004f02be00dd
:100710004f01be004f00be003600f9000040060049
:100720003600f800809fbe00829fbe00849fbe00fe
:10073000869fbe000000fa00c608a90070002000d5
:100740005a0207000080fa004f03be004f02be00ad
:100750004f01be004f00be003600f9000040060009
:100760003600f800809fbe00829fbe00849fbe00be
:10077000869fbe000000fa002046800070006000e6
:100780000000e00003003200c488a900a00020009f
:100790004602070021468000001020000080600013
:1007a0000000e00003003200c508a900c0002000de
:1007b0003e020700ffff37003600f800809fbe00b2
:1007c000829fbe00849fbe00869fbe000000fa008c
:1007d000c028a9000000eb00340207000080fa00e6
:1007e0004f03be004f02be004f01be004f00be00cf
:1007f0003600f900004006003600f800809fbe0079
:10080000829fbe00849fbe00869fbe000000fa004b
:10081000c088a90030002000240207000080fa00f0
:100820004f03be004f02be004f01be004f00be008e
:100830003600f900004006003600f800809fbe0038
:10084000829fbe00849fbe00869fbe000000fa000b
:100850001d020700c048a900100020001302070075
:100860000080fa004f03be004f02be004f01be00e1
:100870004f00be003600f900004006000040da00dc
:080880000000fe00000005006d
:020000040000fa
:100888007e06000094060000a2060000ae060000e6
:10089800b80600006a06000074060000c4060000de
:0808a800e20600000000000060
:020000040000fa
:1008b0000400fa00100798000040eb00004f780099
:1008c0001e0090000000e00002003d0010c0b300d8
:1008d000004f78001e4078000080fa0000000600fb
:1008e0000400fa00100798000040eb00004f780069
:1008f0009e00900000002400008060000000e000e6
:100900000200320010c0b300004f78001e40780093
:100910000080fa00000006000400fa0010079800aa
:100920000040eb00004f78009e0090000020200067
:10093000008060000000e0000200320010c0b30040
:10094000004f78001e4078000080fa00000006008a
:100950000400fa00100798000040eb00004f7800f8
:100960009e00900000082000008060000000e00071
:100970000200320010c0b300004f78001e40780023
:100980000080fa00000006000400fa00100798003a
:100990000040eb00004f78009e0090000004200013
:1009a000008060000000e0000200320010c0b300d0
:1009b000004f78001e4078000080fa00000006001a
:1009c0000400fa00100798000040eb00004f780088
:1009d0001e009000700060000000e0000200320085
:1009e00010c0b300004f78001e4078000080fa006d
:1009f000000006000200fa00000f78009e80ea0066
:100a0000007c800000806000007c88000080fa008c
:100a1000000006000000fa00007c80000080fa0060
:100a2000000006000200fa00faff0700000f78003d
:100a30001e0078009eff07000004e0000200320064
:100a400000002800ebff07001e007800a4ff07004d
:100a50000004e0000200320000002400e5ff07006f
:100a60001e007800acff07000004e0000200320026
:100a700000202000dfff07001e007800b4ff070001
:100a80000004e0000200320000082000d9ff070047
:100a90001e007800bcff07000004e00002003200e6
:100aa00000042000d3ff07001e007800c4ff0700e9
:100ab0000004e0000200320000012000cdff07002a
:100ac0000080fa00000006000000fa00802fef000e
:100ad0000080fa00000006000000fa00c3e8a80049
:100ae00000000000000000000080fa000000060086
:100af0000000fa00c3e8a9000000000000000000a8
:100b00000080fa00000006000000fa00f8ff07006d
:100b100034010700f0ff0700406620006100070075
:100b200025a8a8000080fa00000006000000fa00d6
:100b300000002800e00288000080fa0000000600a3
:100b40000000fa00000024000003880010c0b30079
:100b500000f0b7000080fa00000006000000fa0074
:100b60000070ef00000000004003800061006000a2
:100b70000000e000fcff320080002000200388001d
:100b80000080fa00000006000200fa000040eb00be
:100b9000004f780040038000610060000040780052
:100ba0000004e0000200320010c0b300004f7800e3
:100bb0001e4078000080fa00000006000000fa00e5
:100bc00000d0bf000080fa00000006000400fa0018
:100bd0006000b800008fbe00b00380008000eb0012
:100be000c000dd0000002000008fbe00a0038000d8
:100bf0008000eb003e017000ae8170000200be007c
:100c00000080fa00000006000400fa006000b8004e
:100c1000008fbe00d00380008000eb00c000dd002c
:100c200000002000008fbe00c00380008000eb00a9
:100c30003e017000ae8170000200be000080fa002c
:100c4000000006000200fa000000eb00000f780030
:100c500041038000100e2000008f60001e0078000d
:100c60000080fa00000006000400fa006000b800ee
:100c7000008fbe00700380008000eb00c000dd002c
:100c800000002000008fbe00600380008000eb00a9
:100c90003e017000ae8170000200be000080fa00cc
:100ca000000006000200fa00000f78001e00780025
:100cb0000000e000020032001e0078003080880052
:100cc0000080fa00000006000000fa000080fa0030
:100cd000000006000000fa00400880008000eb00e1
:100ce0000080fa00000006000000fa0020088000e2
:100cf0008000eb000080fa00000006000000fa000f
:100d000000012000000888000421ef00701a26006e
:100d100040088800406f20002a00070009000700f3
:100d20000080fa00000006000000fa000b00070037
:100d30000021ef000421ef000821ef000080fa00fd
:100d4000000006000000fa000028a9002028a800e2
:100d500001e1a8000080fa00000006000000fa008f
:100d600001e1a9002028a9000080fa000000060087
:100d70000400fa00008fbe001e00780040088800c2
:100d80000080fa00000006000200fa00000f780060
:100d90001e00780000407800674060000080fb0083
:100da000670060004400dd0002428000f1f82f007f
:100db0008100610001007000004288000080fa009c
:100dc000000006000200fa00000f78001e00780004
:100dd0000000e000020032009e0078005180880090
:100de0000080fa00000006000000fa000080fa000f
:100df000000006000200fa00000f78009e00780054
:100e0000410888000080fa00000006000000fa0097
:100e100010002300307c880020032000407c8800e4
:100e20008c2fef0010012000507c8800b82fef00bd
:100e3000ba2fef00be2fef00002def00a02fef0024
:100e4000a42fef00a62fef00a82fef00aa2fef008e
:100e5000ae2fef00b02fef00b22fef0012002000f6
:100e600080072000a109200053f820008049780065
:100e70008149780082497800120020006004200037
:100e80007105200043f820008049780081497800ee
:100e90008249780000000000207c80006100600032
:100ea0000000e000fcff3a0000000000217c800010
:100eb00000022000008060000000e000fbff320024
:100ec0000080fa00000006000000fa00062eef0085
:100ed000222eef003e2eef005a2eef00f0012000f0
:100ee000107088000080eb00f0708800f0ff230095
:100ef000d071880020102200b07288000a2eef0006
:100f0000262eef00422eef0000402000f0728800f5
:100f10000c2eef00282eef00442eef00602eef0085
:100f2000082eef00242eef00402eef005c2eef0085
:100f3000f001200000708800f0092000e0708800b7
:100f4000f00c2000c0718800542eef000080fa00e1
:100f5000000006000000fa00b1428000f0f82f0007
:100f6000008060000040a000b04288000142800084
:100f7000f0f82f00008060000040a00000428800d0
:100f80000080fa00000006000000fa00b142800074
:100f9000f0f82f00008060000060a000b0428800e0
:100fa00001428000f0f82f00008060000060a00087
:100fb000004288000080fa00000006000000fe00e9
:100fc00029ff0700821f78001280800000001100b6
:100fd00002002000810019004f0178000000060087
:100fe0000000fe00801f7800811f7800821f7800bb
:100ff00060038000801f78001bff07004f0178000e
:10100000020150000201e900128088004f017800bf
:10101000cf0078004f007800000006000000fa00c2
:1010200019000700010037000000000008d0bf00d1
:101030000004e000fcff3200d0728000aa800a00a9
:10104000000000000004a200614060000080fb007e
:10105000610060004a00dd00d172800001a0a100a3
:1010600001007000d07288000870ef00efff3700b9
:101070000000fa00c3e8a800000000000000000023
:101080000080fa00000006000000fa005fff070081
:101090008dff07009cfe070018ff0700f4ff070004
:1010a000acff07000080fa00000006000200fa0012
:1010b000000f78009e007800618088000000fe002c
:1010c0000080fa00000006000000fa00e0002100a5
:1010d0008007780060022100000188000080fa008b
:0410e0000000060006
:020000040000fa
:1010e400001000000800000080000000081000004c
:1010f40004000000800000000e100000200000002a
:10110400800000000c1000000200000082000000bb
:08111400ffff000000000000d5
:020000040000fa
:020000040001f9
:045e0000ffffff00a1
:020000040000fa
:020000040001f9
:045e2000ffffff0081
:020000040000fa
:020000040001f9
:045e300078ffff00f8
:020000040000fa
:020000040001f9
:045e38007bffff00ed
:020000040000fa
:020000040001f9
:045e4000f453ff0018
:020000040000fa
:020000040001f9
:045e4800ffffff0059
:020000040000fa
:020000040001f9
:045e5000dfffff0071
:020000040000fa
:020000040001f9
:045e58000000ff0047
:020000040000fa
:020000040001f9
:045e60000000ff003f
:020000040000fa
:020000040001f9
:045e68000000ff0037
:020000040000fa
:020000040001f9
:045e70000000ff002f
:020000040000fa
:020000040001f9
:045e7800ffffff0029
:020000040000fa
:020000040001f9
:045e8000fffcff0024
:020000040000fa
:020000040001f9
:045e8800ffffff0019
:00000001FF
