:020000040000fa
:080000000002040000000000f2
:020000040000fa
:04000800fa020000f8
:020000040000fa
:04000c003c030000b1
:020000040000fa
:040010007c0300006d
:020000040000fa
:040014001a030000cb
:020000040000fa
:040018005c03000085
:020000040000fa
:04001c00c803000015
:020000040000fa
:040020009c0300003d
:020000040000fa
:04002400c80300000d
:020000040000fa
:04002800c803000009
:020000040000fa
:04002c00c803000005
:020000040000fa
:04003000c803000001
:020000040000fa
:04003400c8030000fd
:020000040000fa
:04003800c8030000f9
:020000040000fa
:04003c00c8030000f5
:020000040000fa
:04004000c8030000f1
:020000040000fa
:04004400c8030000ed
:020000040000fa
:04004800c8030000e9
:020000040000fa
:04004c00c8030000e5
:020000040000fa
:04005000c8030000e1
:020000040000fa
:04005400c8030000dd
:020000040000fa
:04005800c8030000d9
:020000040000fa
:04005c00c8030000d5
:020000040000fa
:04006000c8030000d1
:020000040000fa
:04006400c8030000cd
:020000040000fa
:04006800c8030000c9
:020000040000fa
:04006c00c8030000c5
:020000040000fa
:04007000c8030000c1
:020000040000fa
:04007400c8030000bd
:020000040000fa
:04007800c8030000b9
:020000040000fa
:04007c00c8030000b5
:020000040000fa
:04008000c8030000b1
:020000040000fa
:04008400c8030000ad
:020000040000fa
:04008800c8030000a9
:020000040000fa
:04008c00c8030000a5
:020000040000fa
:04009000c8030000a1
:020000040000fa
:04009400c80300009d
:020000040000fa
:04009800c803000099
:020000040000fa
:04009c00c803000095
:020000040000fa
:0400a000c803000091
:020000040000fa
:0400a400c80300008d
:020000040000fa
:0400a800c803000089
:020000040000fa
:0400ac00c803000085
:020000040000fa
:0400b000c803000081
:020000040000fa
:0400b400c80300007d
:020000040000fa
:0400b800c803000079
:020000040000fa
:0400bc00c803000075
:020000040000fa
:0400c000c803000071
:020000040000fa
:0400c400c80300006d
:020000040000fa
:0400c800c803000069
:020000040000fa
:0400cc00c803000065
:020000040000fa
:0400d000c803000061
:020000040000fa
:0400d400c80300005d
:020000040000fa
:0400d800c803000059
:020000040000fa
:0400dc00c803000055
:020000040000fa
:0400e000c803000051
:020000040000fa
:0400e400c80300004d
:020000040000fa
:0400e800c803000049
:020000040000fa
:0400ec00c803000045
:020000040000fa
:0400f000c803000041
:020000040000fa
:0400f400c80300003d
:020000040000fa
:0400f800c803000039
:020000040000fa
:0400fc00c803000035
:020000040000fa
:04010000c803000030
:020000040000fa
:04010400c80300002c
:020000040000fa
:04010800c803000028
:020000040000fa
:04010c00c803000024
:020000040000fa
:04011000c803000020
:020000040000fa
:04011400c80300001c
:020000040000fa
:04011800c803000018
:020000040000fa
:04011c00c803000014
:020000040000fa
:04012000c803000010
:020000040000fa
:04012400c80300000c
:020000040000fa
:04012800c803000008
:020000040000fa
:04012c00c803000004
:020000040000fa
:04013000c803000000
:020000040000fa
:04013400c8030000fc
:020000040000fa
:04013800c8030000f8
:020000040000fa
:04013c00c8030000f4
:020000040000fa
:04014000c8030000f0
:020000040000fa
:04014400c8030000ec
:020000040000fa
:04014800c8030000e8
:020000040000fa
:04014c00c8030000e4
:020000040000fa
:04015000c8030000e0
:020000040000fa
:04015400c8030000dc
:020000040000fa
:04015800c8030000d8
:020000040000fa
:04015c00c8030000d4
:020000040000fa
:04016000c8030000d0
:020000040000fa
:04016400c8030000cc
:020000040000fa
:04016800c8030000c8
:020000040000fa
:04016c00c8030000c4
:020000040000fa
:04017000c8030000c0
:020000040000fa
:04017400c8030000bc
:020000040000fa
:04017800c8030000b8
:020000040000fa
:04017c00c8030000b4
:020000040000fa
:04018000c8030000b0
:020000040000fa
:04018400c8030000ac
:020000040000fa
:04018800c8030000a8
:020000040000fa
:04018c00c8030000a4
:020000040000fa
:04019000c8030000a0
:020000040000fa
:04019400c80300009c
:020000040000fa
:04019800c803000098
:020000040000fa
:04019c00c803000094
:020000040000fa
:0401a000c803000090
:020000040000fa
:0401a400c80300008c
:020000040000fa
:0401a800c803000088
:020000040000fa
:0401ac00c803000084
:020000040000fa
:0401b000c803000080
:020000040000fa
:0401b400c80300007c
:020000040000fa
:0401b800c803000078
:020000040000fa
:0401bc00c803000074
:020000040000fa
:0401c000c803000070
:020000040000fa
:0401c400c80300006c
:020000040000fa
:0401c800c803000068
:020000040000fa
:0401cc00c803000064
:020000040000fa
:0401d000c803000060
:020000040000fa
:0401d400c80300005c
:020000040000fa
:0401d800c803000058
:020000040000fa
:0401dc00c803000054
:020000040000fa
:0401e000c803000050
:020000040000fa
:0401e400c80300004c
:020000040000fa
:0401e800c803000048
:020000040000fa
:0401ec00c803000044
:020000040000fa
:0401f000c803000040
:020000040000fa
:0401f400c80300003c
:020000040000fa
:0401f800c803000038
:020000040000fa
:0401fc00c803000034
:020000040000fa
:04020000c80300002f
:020000040000fa
:04020400c80300002b
:020000040000fa
:04020800c803000027
:020000040000fa
:04020c00c803000023
:020000040000fa
:04021000c80300001f
:020000040000fa
:04021400c80300001b
:020000040000fa
:04021800c803000017
:020000040000fa
:04021c00c803000013
:020000040000fa
:04022000c80300000f
:020000040000fa
:04022400c80300000b
:020000040000fa
:04022800c803000007
:020000040000fa
:04022c00c803000003
:020000040000fa
:04023000c8030000ff
:020000040000fa
:04023400c8030000fb
:020000040000fa
:04023800c8030000f7
:020000040000fa
:04023c00c8030000f3
:020000040000fa
:04024000c8030000ef
:020000040000fa
:04024400c8030000eb
:020000040000fa
:04024800c8030000e7
:020000040000fa
:04024c00c8030000e3
:020000040000fa
:04025000c8030000df
:020000040000fa
:04025400c8030000db
:020000040000fa
:04025800c8030000d7
:020000040000fa
:04025c00c8030000d3
:020000040000fa
:04026000c8030000cf
:020000040000fa
:04026400c8030000cb
:020000040000fa
:04026800c8030000c7
:020000040000fa
:04026c00c8030000c3
:020000040000fa
:04027000c8030000bf
:020000040000fa
:04027400c8030000bb
:020000040000fa
:04027800c8030000b7
:020000040000fa
:04027c00c8030000b3
:020000040000fa
:04028000c8030000af
:020000040000fa
:04028400c8030000ab
:020000040000fa
:04028800c8030000a7
:020000040000fa
:04028c00c8030000a3
:020000040000fa
:04029000c80300009f
:020000040000fa
:04029400c80300009b
:020000040000fa
:04029800c803000097
:020000040000fa
:04029c00c803000093
:020000040000fa
:0402a000c80300008f
:020000040000fa
:0402a400c80300008b
:020000040000fa
:0402a800c803000087
:020000040000fa
:0402ac00c803000083
:020000040000fa
:0402b000c80300007f
:020000040000fa
:0402b400c80300007b
:020000040000fa
:0402b800c803000077
:020000040000fa
:0402bc00c803000073
:020000040000fa
:0402c000c80300006f
:020000040000fa
:0402c400c80300006b
:020000040000fa
:0402c800c803000067
:020000040000fa
:0402cc00c803000063
:020000040000fa
:0402d000c80300005f
:020000040000fa
:0402d400c80300005b
:020000040000fa
:0402d800c803000057
:020000040000fa
:0402dc00c803000053
:020000040000fa
:0402e000c80300004f
:020000040000fa
:0402e400c80300004b
:020000040000fa
:0402e800c803000047
:020000040000fa
:0402ec00c803000043
:020000040000fa
:0402f000c80300003f
:020000040000fa
:0402f400c80300003b
:020000040000fa
:0402f800c803000037
:020000040000fa
:0402fc00c803000033
:020000040000fa
:04030000c80300002e
:020000040000fa
:04030400c80300002a
:020000040000fa
:04030800c803000026
:020000040000fa
:04030c00c803000022
:020000040000fa
:04031000c80300001e
:020000040000fa
:04031400c80300001a
:020000040000fa
:04031800c803000016
:020000040000fa
:04031c00c803000012
:020000040000fa
:04032000c80300000e
:020000040000fa
:04032400c80300000a
:020000040000fa
:100400004f0221000eff22000e01880000000000b4
:10041000000020000000e000020032000001200087
:100420002002880014000700db0007000000e00045
:1004300003003a00a0a020000100200002003700c5
:100440000000200001002000810f70000100320038
:100450000f000700000020000000e0000200320052
:100460000000020000000000ba09020000000000c5
:100470000040da000000fe00a00120000000e000c3
:1004800002003200002020009001880000000600d9
:10049000a1028800800478000000eb001f003700f4
:1004a000e284440054a0b4009905ba00e2844400f8
:1004b00054a0b4009906ba00e284440054a0b400e9
:1004c0000006eb00476fde00fd07b200ae018800ba
:1004d000636ce10003003a000ad801000000eb0061
:1004e0000e003700606ce10008003a00004deb00a0
:1004f0000a05e800020039003420ec000af0a000f0
:100500008b05e900f9ff3e00040037006168e10057
:10051000010032000086eb000b00070019c7ba008b
:100520001905ba000e04e00003003a000a00e000da
:10053000dbff3a0000000600fe07b200ae028800b2
:100540008a047800f5ff37000cd0a300e20f4d00bd
:100550001c003b0089027800354dba000a05e8000e
:10056000020039003420ec000af0a0008b05e900fd
:100570000f003200254dba000a05e80002003900dc
:100580003420ec000af0a0008b05e90008003200de
:100590000c00e0000600320015cdba000a05e800a4
:1005a000020039003420ec000af0a0008b05e900bd
:1005b0008984e80054a0b4000b00e000e2ff3a0098
:1005c000000006009902ba00055d78008b05e9007d
:1005d000f7ff3200c82ade00055d78008b05e900d0
:1005e000f3ff32000c00e000f1ff320019ddba0029
:1005f000eeff37003600f800809fbe00829fbe00ed
:10060000849fbe00869fbe000000fa00c028a9009b
:100610000000eb00730307000080fa004f03be00e8
:100620004f02be004f01be004f00be003600f90071
:10063000004006003600f800809fbe00829fbe008a
:10064000849fbe00869fbe000000fa006a03070078
:10065000c048a90010002000620307000080fa00d3
:100660004f03be004f02be004f01be004f00be0050
:100670003600f900004006003600f800809fbe00fa
:10068000829fbe00849fbe00869fbe000000fa00cd
:10069000c068a90020002000520307000080fa0073
:1006a0004f03be004f02be004f01be004f00be0010
:1006b0003600f900004006003600f800809fbe00ba
:1006c000829fbe00849fbe00869fbe000000fa008d
:1006d000c088a90030002000420307000080fa0013
:1006e0004f03be004f02be004f01be004f00be00d0
:1006f0003600f900004006003600f800809fbe007a
:10070000829fbe00849fbe00869fbe000000fa004c
:10071000c608a90070002000320307000080fa001c
:100720004f03be004f02be004f01be004f00be008f
:100730003600f900004006003600f800809fbe0039
:10074000829fbe00849fbe00869fbe000000fa000c
:100750002146800000102000008060000000e000c2
:1007600003003200c508a900c00020001d030700d7
:1007700020468000700060000000e00003003200ae
:10078000c488a900a000200016030700ffff37005f
:0c0790000040da000000fe000000050040
:020000040000fa
:10079c0042690000656e0000766500006e6900001d
:1007ac00646f000073000000647300005049000087
:1007bc0043200000554d0000414b00004552000005
:0407cc000000000029
:020000040000fa
:1007d0000200fa00004f78001e80fb0061006000fc
:1007e000004078000004e00002003200234ea80020
:1007f00001003700234ea9001e80fb00620060004c
:100800000000e00002003200236ea8000100370063
:10081000236ea9001e80fb00640060000000e00061
:1008200002003200238ea80001003700238ea900a9
:100830001e80fb00680060000000e0000200320043
:1008400023aea8000100370023aea9000080fa0003
:10085000000006000200fa00004f78005a2ea9009e
:100860005a2ea8001e407800d9ff070000fa200089
:1008700001002000cd0207005a2ea9000080fa00d6
:10088000000006000000fa0030c0b300f1ff0700ce
:1008900030c0b300efff070030c0b300edff07002a
:1008a00020c0b300ebff070020c0b300e9ff070042
:1008b00080c0b300e7ff07000040eb00e5ff070042
:1008c00080c0b300e3ff07000040eb00e1ff07003a
:1008d00010c0b300dfff07000040eb00ddff0700a2
:1008e000d0c0b300dbff07000080fa000000060064
:1008f0000400fa0020479800314798005b0ea900d9
:100900003e4090000080fb00e10f500017003200d5
:10091000e10f500003003c000000e0000600320040
:1009200039003700e20f50001d003200e30f500085
:100930002800320034003700ae40900000c8b300f9
:1009400000cf40002e4090000080fb000008b00067
:100950004480de00104798001e409000bdff070055
:100960001e407800bbff070027003700ae40900014
:1009700000ccb30000cf40002e4090000080fb0070
:10098000000cb0004480de00104798001e4090002c
:10099000b0ff07001e407800aeff07001a003700c6
:1009a000ae40900040c9b30000cf40002e40900000
:1009b0000080fb004009b0004480de001047980032
:1009c0001e409000a3ff07001e407800a1ff070013
:1009d0000d003700ae40900040cdb30000cf400086
:1009e0002e4090000080fb00400db0004480de00ef
:1009f000104798001e40900096ff07001e407800a8
:100a000094ff0700000000000080fa0000000600cc
:100a10000400fa0020479800ae409000014f780093
:100a20002e4090000000fb004480de000040780073
:100a3000104798005b0ea8001e40900085ff07003d
:100a40001e40780083ff07000080fa0000000600c7
:100a50000400fa00100798009e009000010f780033
:100a6000040037001e007800104078001e0fe800d8
:100a7000e7ff07001e007800104078000004e00047
:100a8000f8ff3a000080fa00000006000a00fa00b1
:100a900020479800314798004247980053479800f4
:100aa0006447980075479800064f9800174f9800c4
:100ab0002e4090000080fb00e20f500062003200e8
:100ac000e30f5000c8003200e10f500024013a004b
:100ad00040c0b3005fff07000040eb005dff070070
:100ae0005b0ea8003e4090000080fb004400de004a
:100af000004f7800be409000114798001e407800db
:100b000054ff07001e40900052ff07004e40900027
:100b10000080fb004400de00004f7800ce409000d3
:100b2000114798001e4078004aff07001e409000c1
:100b300048ff07005e4090000080fb004400de009c
:100b4000004f7800de409000114798001e4078006a
:100b500040ff07001e4090003eff07006e409000df
:100b60000080fb004400de00004f7800ee40900063
:100b7000114798001e40780036ff07001e40900085
:100b800034ff07007e4090000080fb004400de0040
:100b9000004f7800fe409000114798001e407800fa
:100ba0002cff07001e4090002aff07000e4890000f
:100bb0000080fb004400de00004f78008e4890006b
:100bc000114798001e40780022ff07001e40900049
:100bd00020ff07001e4890000080fb004400de005c
:100be000004f78009e489000114798001e40780002
:100bf00018ff07001e40900016ff07000ef8970030
:100c00000080fb004400de00004f78008ef8970063
:100c1000114798001e4078000eff07001e4090000c
:100c20000cff07005b0ea9000040eb0009ff070066
:100c300010c0b30007ff070000a8210061002000da
:100c4000da010700c600370040c0b30001ff07000b
:100c500080c0b300fffe07005b0ea8003e4090007e
:100c60000080fb004400de00004f7800be40900092
:100c7000114798001e407800f6fe07001e409000c5
:100c8000f4fe07004e4090000080fb004400de00b0
:100c9000004f7800ce409000114798001e40780029
:100ca000ecfe07001e409000eafe07004e40900058
:100cb0000080fb004400de00004f7800ce40900032
:100cc000114798001e407800e2fe07001e40900089
:100cd000e0fe07005e4090000080fb004400de0064
:100ce000004f7800de409000114798001e407800c9
:100cf000d8fe07001e409000d6fe07006e40900010
:100d00000080fb004400de00004f7800ee409000c1
:100d1000114798001e407800cefe07001e4090004c
:100d2000ccfe07007e4090000080fb004400de0007
:100d3000004f7800fe409000114798001e40780058
:100d4000c4fe07001e409000c2fe07000e4890003f
:100d50000080fb004400de00004f78008e489000c9
:100d6000114798001e407800bafe07001e40900010
:100d7000b8fe07001e4890000080fb004400de0023
:100d8000004f78009e489000114798001e40780060
:100d9000b0fe07001e409000aefe07000ef8970060
:100da0000080fb004400de00004f78008ef89700c2
:100db000114798001e407800a6fe07001e409000d4
:100dc000a4fe07005b0ea9000040eb00a1fe070097
:100dd00010c0b3009ffe070000a8210061002000a2
:100de000720107005e00370040c0b30099fe0700a3
:100df00000c0eb0097fe07005b0ea8003e4090008d
:100e00000080fb004400de00004f7800be409000f0
:100e1000114798001e4078008efe07001e4090008b
:100e20008cfe07004e4090000080fb004400de0076
:100e3000004f7800ce409000114798001e40780087
:100e400084fe07001e40900082fe07005e40900076
:100e50000080fb004400de00004f7800de40900080
:100e6000114798001e4078007afe07001e4090004f
:100e700078fe07006e4090000080fb004400de001a
:100e8000004f7800ee409000114798001e40780017
:100e900070fe07001e4090006efe07007e4090002e
:100ea0000080fb004400de00004f7800fe40900010
:100eb000114798001e40780066fe07001e40900013
:100ec00064fe07000e4890000080fb004400de0036
:100ed000004f78008e489000114798001e4078001f
:100ee0005cfe07001e4090005afe07001e4890005e
:100ef0000080fb004400de00004f78009e48900018
:100f0000114798001e40780052fe07001e409000d6
:100f100050fe07000ef897000080fb004400de0042
:100f2000004f78008ef89700114798001e40780017
:100f300048fe07001e40900046fe07005b0ea90019
:100f40000040eb0043fe070010c0b30041fe070065
:100f500000a821006100200014010700000000002b
:100f60000080fa00000006000200fa00004f78003e
:100f70005b0ea8000040eb0036fe07001e40e900b3
:100f800034fe07005b0ea9000080fa000000060096
:100f90000000fa005b0ea9000040eb002dfe0700e8
:100fa00010c0b3002bfe07000080fa00000006000e
:100fb0000000fa005b0ea9000040eb0025fe0700d0
:100fc00020c0b30023fe07000080fa0000000600e6
:100fd0000000fa00007c80000080fa00000006009b
:100fe0000200fa00faff0700000f78001e007800e8
:100ff000240007000004e000020032000000280086
:10100000710007001e0078002a0007000004e000bd
:1010100002003200000024006b0007001e00780070
:10102000320007000004e00002003200002020002f
:10103000650007001e0078003a0007000004e00089
:1010400002003200000820005f0007001e00780048
:10105000420007000004e00002003200000420000b
:10106000590007001e0078004a0007000004e00055
:101070000200320000012000530007000080fa0047
:10108000000006000400fa00100798000040eb0082
:10109000004f78001e0090000000e00002003d00bc
:1010a00010c0b300004f78001e4078000080fa00a6
:1010b000000006000400fa00100798000040eb0052
:1010c000004f78009e009000000024000080600027
:1010d0000000e0000200320010c0b300004f7800b2
:1010e0001e4078000080fa00000006000400fa00ac
:1010f000100798000040eb00004f78009e00900021
:1011000000202000008060000000e00002003200ab
:1011100010c0b300004f78001e4078000080fa0035
:10112000000006000400fa00100798000040eb00e1
:10113000004f78009e0090000008200000806000b2
:101140000000e0000200320010c0b300004f780041
:101150001e4078000080fa00000006000400fa003b
:10116000100798000040eb00004f78009e009000b0
:1011700000042000008060000000e0000200320057
:1011800010c0b300004f78001e4078000080fa00c5
:10119000000006000400fa00100798000040eb0071
:1011a000004f78001e009000700060000000e0001a
:1011b0000200320010c0b300004f78001e407800db
:1011c0000080fa00000006000200fa00000f78001c
:1011d0009e80ea00007c800000806000007c880027
:1011e0000080fa00000006000000fa00802fef00e7
:1011f0000080fa00000006000000fa001000230042
:10120000307c880060092000407c88008c2fef0033
:1012100010042000507c8800b82fef00ba2fef0098
:10122000be2fef00002def00a02fef00a42fef0046
:10123000a62fef00a82fef00aa2fef00ae2fef0090
:10124000b02fef00b22fef007200200080072000c7
:10125000a109200053f820008049780081497800d6
:10126000824978000001eb00600420007105200035
:1012700043f820008049780081497800824978004d
:101280000080fa00000006000000fa00062eef00c1
:10129000222eef003e2eef005a2eef00f00120002c
:1012a00010708800d03f2c00f0708800f0ff230001
:1012b000d071880000402200b07288000c2eef0030
:1012c000282eef00442eef00602eef000a2eef00d4
:1012d000262eef00422eef005e2eef00082eef00cc
:1012e000242eef00402eef005c2eef00f0012000d6
:1012f00000708800d0092000e0708800f00c200009
:10130000c071880000402200a07288000080fa00ae
:10131000000006000200fa00000f780021028000a1
:10132000200f2000008060001e0070002002880056
:101330000080fa00000006000000fa00c3e8a800e0
:1013400000000000000000000080fa00000006001d
:101350000000fa00ccff0700a7ff070038000700d5
:10136000f5ff070000022000eaff07000080fa00f6
:10137000000006000000fa00f5ff070041fd07002d
:101380008040eb000040eb0059fd0700e03c2800e6
:10139000affd07008040eb000040eb0054fd07006c
:0c13a000a03d2800aafd0700ffff370059
:020000040000fa
:1013ac00f03fb1000180b10006003500ee030900ea
:1013bc0000000000403fb1000180b100fbff3d0088
:1013cc001000b000203fb000020035000080090082
:0813dc00000000000000060003
:020000040000fa
:1013e4000200fa00000f78009e0078000180880057
:1013f400ffff37000000fa0040002100800778005a
:10140400c0012100000188000080fa0000000600ed
:020000040000fa
:101414000410000020000000800000000010000004
:101424000200000082000000ffff00000210000024
:0c1434000200000080000000000000002a
:020000040000fa
:0c1440000000fa000080fa000000060026
:020000040000fa
:020000040001f9
:045e0000ffffff00a1
:020000040000fa
:020000040001f9
:045e2000ffffff0081
:020000040000fa
:020000040001f9
:045e30007fffff00f1
:020000040000fa
:020000040001f9
:045e3800bfffff00a9
:020000040000fa
:020000040001f9
:045e40007f7fff0061
:020000040000fa
:020000040001f9
:045e4800ffffff0059
:020000040000fa
:020000040001f9
:045e5000dfffff0071
:020000040000fa
:020000040001f9
:045e58000000ff0047
:020000040000fa
:020000040001f9
:045e60000000ff003f
:020000040000fa
:020000040001f9
:045e68000000ff0037
:020000040000fa
:020000040001f9
:045e70000000ff002f
:020000040000fa
:020000040001f9
:045e7800ffffff0029
:020000040000fa
:020000040001f9
:045e8000fffcff0024
:020000040000fa
:020000040001f9
:045e8800ffffff0019
:00000001FF
